{
  "_format": "hh3-artifact-1",
  "contractName": "InvoiceRegistry",
  "sourceName": "contracts/InvoiceRegistry.sol",
  "abi": [
    {
      "inputs": [
        {
          "internalType": "address",
          "name": "initialOwner",
          "type": "address"
        },
        {
          "internalType": "address[]",
          "name": "tokens",
          "type": "address[]"
        },
        {
          "internalType": "address",
          "name": "commissionRecipient_",
          "type": "address"
        }
      ],
      "stateMutability": "nonpayable",
      "type": "constructor"
    },
    {
      "inputs": [
        {
          "internalType": "address",
          "name": "owner",
          "type": "address"
        }
      ],
      "name": "OwnableInvalidOwner",
      "type": "error"
    },
    {
      "inputs": [
        {
          "internalType": "address",
          "name": "account",
          "type": "address"
        }
      ],
      "name": "OwnableUnauthorizedAccount",
      "type": "error"
    },
    {
      "inputs": [],
      "name": "ReentrancyGuardReentrantCall",
      "type": "error"
    },
    {
      "inputs": [
        {
          "internalType": "address",
          "name": "token",
          "type": "address"
        }
      ],
      "name": "SafeERC20FailedOperation",
      "type": "error"
    },
    {
      "anonymous": false,
      "inputs": [
        {
          "indexed": false,
          "internalType": "uint256",
          "name": "newCommissionBps",
          "type": "uint256"
        }
      ],
      "name": "CommissionBpsUpdated",
      "type": "event"
    },
    {
      "anonymous": false,
      "inputs": [
        {
          "indexed": true,
          "internalType": "address",
          "name": "newRecipient",
          "type": "address"
        }
      ],
      "name": "CommissionRecipientUpdated",
      "type": "event"
    },
    {
      "anonymous": false,
      "inputs": [
        {
          "indexed": true,
          "internalType": "uint256",
          "name": "invoiceId",
          "type": "uint256"
        },
        {
          "indexed": true,
          "internalType": "address",
          "name": "emitter",
          "type": "address"
        }
      ],
      "name": "InvoiceCancelled",
      "type": "event"
    },
    {
      "anonymous": false,
      "inputs": [
        {
          "indexed": true,
          "internalType": "uint256",
          "name": "invoiceId",
          "type": "uint256"
        },
        {
          "indexed": true,
          "internalType": "bytes32",
          "name": "invoiceHash",
          "type": "bytes32"
        },
        {
          "indexed": true,
          "internalType": "address",
          "name": "emitter",
          "type": "address"
        },
        {
          "indexed": false,
          "internalType": "address",
          "name": "recipient",
          "type": "address"
        },
        {
          "indexed": false,
          "internalType": "uint256",
          "name": "amount",
          "type": "uint256"
        },
        {
          "indexed": false,
          "internalType": "address",
          "name": "token",
          "type": "address"
        },
        {
          "indexed": false,
          "internalType": "string",
          "name": "vatNumber",
          "type": "string"
        },
        {
          "indexed": false,
          "internalType": "uint256",
          "name": "worldIdNullifierHash",
          "type": "uint256"
        }
      ],
      "name": "InvoiceCreated",
      "type": "event"
    },
    {
      "anonymous": false,
      "inputs": [
        {
          "indexed": true,
          "internalType": "uint256",
          "name": "invoiceId",
          "type": "uint256"
        },
        {
          "indexed": true,
          "internalType": "address",
          "name": "payer",
          "type": "address"
        },
        {
          "indexed": false,
          "internalType": "uint256",
          "name": "amount",
          "type": "uint256"
        },
        {
          "indexed": false,
          "internalType": "address",
          "name": "token",
          "type": "address"
        },
        {
          "indexed": false,
          "internalType": "uint256",
          "name": "commissionAmount",
          "type": "uint256"
        }
      ],
      "name": "InvoicePaid",
      "type": "event"
    },
    {
      "anonymous": false,
      "inputs": [
        {
          "indexed": true,
          "internalType": "address",
          "name": "previousOwner",
          "type": "address"
        },
        {
          "indexed": true,
          "internalType": "address",
          "name": "newOwner",
          "type": "address"
        }
      ],
      "name": "OwnershipTransferred",
      "type": "event"
    },
    {
      "inputs": [],
      "name": "COMMISSION_BPS_DENOMINATOR",
      "outputs": [
        {
          "internalType": "uint256",
          "name": "",
          "type": "uint256"
        }
      ],
      "stateMutability": "view",
      "type": "function"
    },
    {
      "inputs": [
        {
          "internalType": "address",
          "name": "token",
          "type": "address"
        }
      ],
      "name": "addAllowedToken",
      "outputs": [],
      "stateMutability": "nonpayable",
      "type": "function"
    },
    {
      "inputs": [
        {
          "internalType": "address",
          "name": "",
          "type": "address"
        }
      ],
      "name": "allowedToken",
      "outputs": [
        {
          "internalType": "bool",
          "name": "",
          "type": "bool"
        }
      ],
      "stateMutability": "view",
      "type": "function"
    },
    {
      "inputs": [
        {
          "internalType": "uint256",
          "name": "invoiceId",
          "type": "uint256"
        }
      ],
      "name": "cancelInvoice",
      "outputs": [],
      "stateMutability": "nonpayable",
      "type": "function"
    },
    {
      "inputs": [],
      "name": "commissionBps",
      "outputs": [
        {
          "internalType": "uint256",
          "name": "",
          "type": "uint256"
        }
      ],
      "stateMutability": "view",
      "type": "function"
    },
    {
      "inputs": [],
      "name": "commissionRecipient",
      "outputs": [
        {
          "internalType": "address",
          "name": "",
          "type": "address"
        }
      ],
      "stateMutability": "view",
      "type": "function"
    },
    {
      "inputs": [
        {
          "internalType": "uint256",
          "name": "invoiceId",
          "type": "uint256"
        },
        {
          "internalType": "bytes32",
          "name": "invoiceHash_",
          "type": "bytes32"
        },
        {
          "internalType": "address",
          "name": "emitter",
          "type": "address"
        },
        {
          "internalType": "address",
          "name": "recipient",
          "type": "address"
        },
        {
          "internalType": "uint256",
          "name": "amount",
          "type": "uint256"
        },
        {
          "internalType": "address",
          "name": "token",
          "type": "address"
        },
        {
          "internalType": "string",
          "name": "vatNumber",
          "type": "string"
        },
        {
          "internalType": "uint256",
          "name": "worldIdNullifierHash_",
          "type": "uint256"
        }
      ],
      "name": "createInvoice",
      "outputs": [],
      "stateMutability": "nonpayable",
      "type": "function"
    },
    {
      "inputs": [
        {
          "internalType": "uint256",
          "name": "invoiceId",
          "type": "uint256"
        }
      ],
      "name": "getInvoice",
      "outputs": [
        {
          "internalType": "bytes32",
          "name": "invoiceHash_",
          "type": "bytes32"
        },
        {
          "internalType": "address",
          "name": "emitter",
          "type": "address"
        },
        {
          "internalType": "address",
          "name": "recipient",
          "type": "address"
        },
        {
          "internalType": "uint256",
          "name": "amount",
          "type": "uint256"
        },
        {
          "internalType": "address",
          "name": "token",
          "type": "address"
        },
        {
          "internalType": "string",
          "name": "vatNumber",
          "type": "string"
        },
        {
          "internalType": "uint256",
          "name": "worldIdNullifierHash_",
          "type": "uint256"
        },
        {
          "internalType": "enum InvoiceRegistry.Status",
          "name": "status",
          "type": "uint8"
        }
      ],
      "stateMutability": "view",
      "type": "function"
    },
    {
      "inputs": [
        {
          "internalType": "address",
          "name": "emitter",
          "type": "address"
        }
      ],
      "name": "getNextInvoiceId",
      "outputs": [
        {
          "internalType": "uint256",
          "name": "",
          "type": "uint256"
        }
      ],
      "stateMutability": "view",
      "type": "function"
    },
    {
      "inputs": [],
      "name": "owner",
      "outputs": [
        {
          "internalType": "address",
          "name": "",
          "type": "address"
        }
      ],
      "stateMutability": "view",
      "type": "function"
    },
    {
      "inputs": [
        {
          "internalType": "address",
          "name": "emitter",
          "type": "address"
        },
        {
          "internalType": "uint256",
          "name": "seq",
          "type": "uint256"
        }
      ],
      "name": "packInvoiceId",
      "outputs": [
        {
          "internalType": "uint256",
          "name": "invoiceId",
          "type": "uint256"
        }
      ],
      "stateMutability": "pure",
      "type": "function"
    },
    {
      "inputs": [
        {
          "internalType": "uint256",
          "name": "invoiceId",
          "type": "uint256"
        }
      ],
      "name": "parseInvoiceId",
      "outputs": [
        {
          "internalType": "address",
          "name": "emitter",
          "type": "address"
        },
        {
          "internalType": "uint256",
          "name": "seq",
          "type": "uint256"
        }
      ],
      "stateMutability": "pure",
      "type": "function"
    },
    {
      "inputs": [
        {
          "internalType": "uint256",
          "name": "invoiceId",
          "type": "uint256"
        }
      ],
      "name": "payInvoice",
      "outputs": [],
      "stateMutability": "nonpayable",
      "type": "function"
    },
    {
      "inputs": [],
      "name": "renounceOwnership",
      "outputs": [],
      "stateMutability": "nonpayable",
      "type": "function"
    },
    {
      "inputs": [
        {
          "internalType": "uint256",
          "name": "newBps",
          "type": "uint256"
        }
      ],
      "name": "setCommissionBps",
      "outputs": [],
      "stateMutability": "nonpayable",
      "type": "function"
    },
    {
      "inputs": [
        {
          "internalType": "address",
          "name": "newRecipient",
          "type": "address"
        }
      ],
      "name": "setCommissionRecipient",
      "outputs": [],
      "stateMutability": "nonpayable",
      "type": "function"
    },
    {
      "inputs": [
        {
          "internalType": "address",
          "name": "newOwner",
          "type": "address"
        }
      ],
      "name": "transferOwnership",
      "outputs": [],
      "stateMutability": "nonpayable",
      "type": "function"
    }
  ],
  "bytecode": "0x608060405234801561000f575f5ffd5b5060405161319438038061319483398181016040528101906100319190610550565b825f73ffffffffffffffffffffffffffffffffffffffff168173ffffffffffffffffffffffffffffffffffffffff16036100a2575f6040517f1e4fbdf700000000000000000000000000000000000000000000000000000000815260040161009991906105cb565b60405180910390fd5b6100b1816101dc60201b60201c565b5060016100d06100c561029d60201b60201c565b6102c660201b60201c565b5f01819055505f73ffffffffffffffffffffffffffffffffffffffff168173ffffffffffffffffffffffffffffffffffffffff1603610144576040517f08c379a000000000000000000000000000000000000000000000000000000000815260040161013b90610664565b60405180910390fd5b8060065f6101000a81548173ffffffffffffffffffffffffffffffffffffffff021916908373ffffffffffffffffffffffffffffffffffffffff160217905550600a6005819055505f825190505f5f90505b818110156101d2576101c78482815181106101b4576101b3610682565b5b60200260200101516102cf60201b60201c565b806001019050610196565b5050505050610717565b5f5f5f9054906101000a900473ffffffffffffffffffffffffffffffffffffffff169050815f5f6101000a81548173ffffffffffffffffffffffffffffffffffffffff021916908373ffffffffffffffffffffffffffffffffffffffff1602179055508173ffffffffffffffffffffffffffffffffffffffff168173ffffffffffffffffffffffffffffffffffffffff167f8be0079c531659141344cd1fd0a4f28419497f9722a3daafe3b4186f6b6457e060405160405180910390a35050565b5f7f9b779b17422d0df92223018b32b4d1fa46e071723d6817e2486d003becc55f005f1b905090565b5f819050919050565b5f73ffffffffffffffffffffffffffffffffffffffff168173ffffffffffffffffffffffffffffffffffffffff160361033d576040517f08c379a0000000000000000000000000000000000000000000000000000000008152600401610334906106f9565b60405180910390fd5b600160035f8373ffffffffffffffffffffffffffffffffffffffff1673ffffffffffffffffffffffffffffffffffffffff1681526020019081526020015f205f6101000a81548160ff02191690831515021790555050565b5f604051905090565b5f5ffd5b5f5ffd5b5f73ffffffffffffffffffffffffffffffffffffffff82169050919050565b5f6103cf826103a6565b9050919050565b6103df816103c5565b81146103e9575f5ffd5b50565b5f815190506103fa816103d6565b92915050565b5f5ffd5b5f601f19601f8301169050919050565b7f4e487b71000000000000000000000000000000000000000000000000000000005f52604160045260245ffd5b61044a82610404565b810181811067ffffffffffffffff8211171561046957610468610414565b5b80604052505050565b5f61047b610395565b90506104878282610441565b919050565b5f67ffffffffffffffff8211156104a6576104a5610414565b5b602082029050602081019050919050565b5f5ffd5b5f6104cd6104c88461048c565b610472565b905080838252602082019050602084028301858111156104f0576104ef6104b7565b5b835b81811015610519578061050588826103ec565b8452602084019350506020810190506104f2565b5050509392505050565b5f82601f83011261053757610536610400565b5b81516105478482602086016104bb565b91505092915050565b5f5f5f606084860312156105675761056661039e565b5b5f610574868287016103ec565b935050602084015167ffffffffffffffff811115610595576105946103a2565b5b6105a186828701610523565b92505060406105b2868287016103ec565b9150509250925092565b6105c5816103c5565b82525050565b5f6020820190506105de5f8301846105bc565b92915050565b5f82825260208201905092915050565b7f496e766f69636552656769737472793a207a65726f20636f6d6d697373696f6e5f8201527f20726563697069656e7400000000000000000000000000000000000000000000602082015250565b5f61064e602a836105e4565b9150610659826105f4565b604082019050919050565b5f6020820190508181035f83015261067b81610642565b9050919050565b7f4e487b71000000000000000000000000000000000000000000000000000000005f52603260045260245ffd5b7f496e766f69636552656769737472793a207a65726f20746f6b656e00000000005f82015250565b5f6106e3601b836105e4565b91506106ee826106af565b602082019050919050565b5f6020820190508181035f830152610710816106d7565b9050919050565b612a70806107245f395ff3fe608060405234801561000f575f5ffd5b5060043610610109575f3560e01c80637e197fbd116100a0578063b43732151161006f578063b4373215146102a9578063d6b45038146102d9578063da9c273d146102f7578063e733182314610313578063f2fde38b1461032f57610109565b80637e197fbd1461020e5780638da5cb5b1461023f578063a95081961461025d578063ac60a6cd1461028d57610109565b80633a23cc0a116100dc5780633a23cc0a146101815780634178617f146101b8578063715018a6146101d4578063756742f8146101de57610109565b806306fd154a1461010d57806323ce7c591461012b578063284fd8e514610147578063321988a114610163575b5f5ffd5b61011561034b565b6040516101229190611950565b60405180910390f35b61014560048036038101906101409190611a62565b610370565b005b610161600480360381019061015c9190611b32565b610a58565b005b61016b610b54565b6040516101789190611b6c565b60405180910390f35b61019b60048036038101906101969190611b85565b610b5a565b6040516101af989796959493929190611ca2565b60405180910390f35b6101d260048036038101906101cd9190611b32565b610ca4565b005b6101dc610cb8565b005b6101f860048036038101906101f39190611b32565b610ccb565b6040516102059190611d3f565b60405180910390f35b61022860048036038101906102239190611b85565b610ce8565b604051610236929190611d58565b60405180910390f35b610247610d07565b6040516102549190611950565b60405180910390f35b61027760048036038101906102729190611d7f565b610d2e565b6040516102849190611b6c565b60405180910390f35b6102a760048036038101906102a29190611b85565b610e1c565b005b6102c360048036038101906102be9190611b32565b61119f565b6040516102d09190611b6c565b60405180910390f35b6102e16111fa565b6040516102ee9190611b6c565b60405180910390f35b610311600480360381019061030c9190611b85565b611200565b005b61032d60048036038101906103289190611b85565b6113aa565b005b61034960048036038101906103449190611b32565b611438565b005b60065f9054906101000a900473ffffffffffffffffffffffffffffffffffffffff1681565b8673ffffffffffffffffffffffffffffffffffffffff163373ffffffffffffffffffffffffffffffffffffffff16146103de576040517f08c379a00000000000000000000000000000000000000000000000000000000081526004016103d590611e07565b60405180910390fd5b5f73ffffffffffffffffffffffffffffffffffffffff168673ffffffffffffffffffffffffffffffffffffffff160361044c576040517f08c379a000000000000000000000000000000000000000000000000000000000815260040161044390611e6f565b60405180910390fd5b60035f8573ffffffffffffffffffffffffffffffffffffffff1673ffffffffffffffffffffffffffffffffffffffff1681526020019081526020015f205f9054906101000a900460ff166104d5576040517f08c379a00000000000000000000000000000000000000000000000000000000081526004016104cc90611efd565b60405180910390fd5b5f8511610517576040517f08c379a000000000000000000000000000000000000000000000000000000000815260040161050e90611f65565b60405180910390fd5b604083839050111561055e576040517f08c379a000000000000000000000000000000000000000000000000000000000815260040161055590611ff3565b60405180910390fd5b60025f8981526020019081526020015f205f9054906101000a900460ff16156105bc576040517f08c379a00000000000000000000000000000000000000000000000000000000081526004016105b39061205b565b60405180910390fd5b5f5f6105c78b610ce8565b915091508873ffffffffffffffffffffffffffffffffffffffff168273ffffffffffffffffffffffffffffffffffffffff1614610639576040517f08c379a0000000000000000000000000000000000000000000000000000000008152600401610630906120e9565b60405180910390fd5b600160045f8b73ffffffffffffffffffffffffffffffffffffffff1673ffffffffffffffffffffffffffffffffffffffff1681526020019081526020015f20546106839190612134565b81146106c4576040517f08c379a00000000000000000000000000000000000000000000000000000000081526004016106bb906121d7565b60405180910390fd5b5f73ffffffffffffffffffffffffffffffffffffffff1660015f8d81526020019081526020015f206001015f9054906101000a900473ffffffffffffffffffffffffffffffffffffffff1673ffffffffffffffffffffffffffffffffffffffff1614610765576040517f08c379a000000000000000000000000000000000000000000000000000000000815260040161075c9061223f565b60405180910390fd5b600160025f8c81526020019081526020015f205f6101000a81548160ff021916908315150217905550600160045f8b73ffffffffffffffffffffffffffffffffffffffff1673ffffffffffffffffffffffffffffffffffffffff1681526020019081526020015f205f82825401925050819055506040518061010001604052808b81526020018a73ffffffffffffffffffffffffffffffffffffffff1681526020018973ffffffffffffffffffffffffffffffffffffffff1681526020018881526020018773ffffffffffffffffffffffffffffffffffffffff16815260200186868080601f0160208091040260200160405190810160405280939291908181526020018383808284375f81840152601f19601f8201169050808301925050505050505081526020018481526020015f60028111156108a7576108a6611c2f565b5b81525060015f8d81526020019081526020015f205f820151815f01556020820151816001015f6101000a81548173ffffffffffffffffffffffffffffffffffffffff021916908373ffffffffffffffffffffffffffffffffffffffff1602179055506040820151816002015f6101000a81548173ffffffffffffffffffffffffffffffffffffffff021916908373ffffffffffffffffffffffffffffffffffffffff160217905550606082015181600301556080820151816004015f6101000a81548173ffffffffffffffffffffffffffffffffffffffff021916908373ffffffffffffffffffffffffffffffffffffffff16021790555060a08201518160050190816109b49190612487565b5060c0820151816006015560e0820151816007015f6101000a81548160ff021916908360028111156109e9576109e8611c2f565b5b02179055509050508873ffffffffffffffffffffffffffffffffffffffff168a8c7f502aaa82676262fc025d1eaa188ed92b7e00b71dc3f32a0356d4c70e5462d9be8b8b8b8b8b8b604051610a4396959493929190612590565b60405180910390a45050505050505050505050565b610a606114bc565b5f73ffffffffffffffffffffffffffffffffffffffff168173ffffffffffffffffffffffffffffffffffffffff1603610ace576040517f08c379a0000000000000000000000000000000000000000000000000000000008152600401610ac59061265a565b60405180910390fd5b8060065f6101000a81548173ffffffffffffffffffffffffffffffffffffffff021916908373ffffffffffffffffffffffffffffffffffffffff1602179055508073ffffffffffffffffffffffffffffffffffffffff167ff433abf3170ac388734721d2bfc716ed3334144695be86f04faec6e558be6cca60405160405180910390a250565b61271081565b5f5f5f5f5f60605f5f5f610b6d8a611543565b9050805f0154816001015f9054906101000a900473ffffffffffffffffffffffffffffffffffffffff16826002015f9054906101000a900473ffffffffffffffffffffffffffffffffffffffff168360030154846004015f9054906101000a900473ffffffffffffffffffffffffffffffffffffffff16856005018660060154876007015f9054906101000a900460ff16828054610c0a906122b7565b80601f0160208091040260200160405190810160405280929190818152602001828054610c36906122b7565b8015610c815780601f10610c5857610100808354040283529160200191610c81565b820191905f5260205f20905b815481529060010190602001808311610c6457829003601f168201915b505050505092509850985098509850985098509850985050919395975091939597565b610cac6114bc565b610cb5816115f2565b50565b610cc06114bc565b610cc95f6116b8565b565b6003602052805f5260405f205f915054906101000a900460ff1681565b5f5f606083901c91506bffffffffffffffffffffffff83169050915091565b5f5f5f9054906101000a900473ffffffffffffffffffffffffffffffffffffffff16905090565b5f5f73ffffffffffffffffffffffffffffffffffffffff168373ffffffffffffffffffffffffffffffffffffffff1603610d9d576040517f08c379a0000000000000000000000000000000000000000000000000000000008152600401610d94906126c2565b60405180910390fd5b5f82118015610db857506bffffffffffffffffffffffff8211155b610df7576040517f08c379a0000000000000000000000000000000000000000000000000000000008152600401610dee90612750565b60405180910390fd5b8160608473ffffffffffffffffffffffffffffffffffffffff16901b17905092915050565b610e24611779565b5f610e2e82611543565b90505f6002811115610e4357610e42611c2f565b5b816007015f9054906101000a900460ff166002811115610e6657610e65611c2f565b5b14610ea6576040517f08c379a0000000000000000000000000000000000000000000000000000000008152600401610e9d906127b8565b60405180910390fd5b60035f826004015f9054906101000a900473ffffffffffffffffffffffffffffffffffffffff1673ffffffffffffffffffffffffffffffffffffffff1673ffffffffffffffffffffffffffffffffffffffff1681526020019081526020015f205f9054906101000a900460ff16610f52576040517f08c379a0000000000000000000000000000000000000000000000000000000008152600401610f4990611efd565b60405180910390fd5b5f816003015490505f61271060055483610f6c91906127d6565b610f769190612844565b90505f811115611010575f73ffffffffffffffffffffffffffffffffffffffff1660065f9054906101000a900473ffffffffffffffffffffffffffffffffffffffff1673ffffffffffffffffffffffffffffffffffffffff160361100f576040517f08c379a00000000000000000000000000000000000000000000000000000000081526004016110069061265a565b60405180910390fd5b5b5f818361101d9190612874565b90506001846007015f6101000a81548160ff0219169083600281111561104657611045611c2f565b5b02179055503373ffffffffffffffffffffffffffffffffffffffff16857f1e9d5d6c031b4874171949ea430d3fb4672ea0580b179f82f6f1439e9b8be5c785876004015f9054906101000a900473ffffffffffffffffffffffffffffffffffffffff16866040516110b9939291906128a7565b60405180910390a35f846004015f9054906101000a900473ffffffffffffffffffffffffffffffffffffffff1690505f83111561113f5761113e3360065f9054906101000a900473ffffffffffffffffffffffffffffffffffffffff16858473ffffffffffffffffffffffffffffffffffffffff1661179b909392919063ffffffff16565b5b61118f33866001015f9054906101000a900473ffffffffffffffffffffffffffffffffffffffff16848473ffffffffffffffffffffffffffffffffffffffff1661179b909392919063ffffffff16565b505050505061119c6117f0565b50565b5f6111f382600160045f8673ffffffffffffffffffffffffffffffffffffffff1673ffffffffffffffffffffffffffffffffffffffff1681526020019081526020015f20546111ee9190612134565b610d2e565b9050919050565b60055481565b5f61120a82611543565b9050806001015f9054906101000a900473ffffffffffffffffffffffffffffffffffffffff1673ffffffffffffffffffffffffffffffffffffffff163373ffffffffffffffffffffffffffffffffffffffff161461129d576040517f08c379a000000000000000000000000000000000000000000000000000000000815260040161129490611e07565b60405180910390fd5b5f60028111156112b0576112af611c2f565b5b816007015f9054906101000a900460ff1660028111156112d3576112d2611c2f565b5b14611313576040517f08c379a000000000000000000000000000000000000000000000000000000000815260040161130a906127b8565b60405180910390fd5b6002816007015f6101000a81548160ff0219169083600281111561133a57611339611c2f565b5b0217905550806001015f9054906101000a900473ffffffffffffffffffffffffffffffffffffffff1673ffffffffffffffffffffffffffffffffffffffff16827f1893bd55c53ca5d28463267b3794ea27b1c3fc3b0cc5f86e0c5b613ad4156f0860405160405180910390a35050565b6113b26114bc565b6127108111156113f7576040517f08c379a00000000000000000000000000000000000000000000000000000000081526004016113ee9061294c565b60405180910390fd5b806005819055507f8534a60516a09ee1a02182db474e9d339a059c7c662e8269d8dbffda6c75092b8160405161142d9190611b6c565b60405180910390a150565b6114406114bc565b5f73ffffffffffffffffffffffffffffffffffffffff168173ffffffffffffffffffffffffffffffffffffffff16036114b0575f6040517f1e4fbdf70000000000000000000000000000000000000000000000000000000081526004016114a79190611950565b60405180910390fd5b6114b9816116b8565b50565b6114c461180a565b73ffffffffffffffffffffffffffffffffffffffff166114e2610d07565b73ffffffffffffffffffffffffffffffffffffffff16146115415761150561180a565b6040517f118cdaa70000000000000000000000000000000000000000000000000000000081526004016115389190611950565b60405180910390fd5b565b5f5f60015f8481526020019081526020015f2090505f73ffffffffffffffffffffffffffffffffffffffff16816001015f9054906101000a900473ffffffffffffffffffffffffffffffffffffffff1673ffffffffffffffffffffffffffffffffffffffff16036115e9576040517f08c379a00000000000000000000000000000000000000000000000000000000081526004016115e0906129b4565b60405180910390fd5b80915050919050565b5f73ffffffffffffffffffffffffffffffffffffffff168173ffffffffffffffffffffffffffffffffffffffff1603611660576040517f08c379a000000000000000000000000000000000000000000000000000000000815260040161165790612a1c565b60405180910390fd5b600160035f8373ffffffffffffffffffffffffffffffffffffffff1673ffffffffffffffffffffffffffffffffffffffff1681526020019081526020015f205f6101000a81548160ff02191690831515021790555050565b5f5f5f9054906101000a900473ffffffffffffffffffffffffffffffffffffffff169050815f5f6101000a81548173ffffffffffffffffffffffffffffffffffffffff021916908373ffffffffffffffffffffffffffffffffffffffff1602179055508173ffffffffffffffffffffffffffffffffffffffff168173ffffffffffffffffffffffffffffffffffffffff167f8be0079c531659141344cd1fd0a4f28419497f9722a3daafe3b4186f6b6457e060405160405180910390a35050565b611781611811565b600261179361178e611852565b61187b565b5f0181905550565b6117a9848484846001611884565b6117ea57836040517f5274afe70000000000000000000000000000000000000000000000000000000081526004016117e19190611950565b60405180910390fd5b50505050565b60016118026117fd611852565b61187b565b5f0181905550565b5f33905090565b6118196118f5565b15611850576040517f3ee5aeb500000000000000000000000000000000000000000000000000000000815260040160405180910390fd5b565b5f7f9b779b17422d0df92223018b32b4d1fa46e071723d6817e2486d003becc55f005f1b905090565b5f819050919050565b5f5f6323b872dd60e01b9050604051815f525f1960601c87166004525f1960601c86166024528460445260205f60645f5f8c5af1925060015f511483166118e25783831516156118d6573d5f823e3d81fd5b5f883b113d1516831692505b806040525f606052505095945050505050565b5f6002611908611903611852565b61187b565b5f015414905090565b5f73ffffffffffffffffffffffffffffffffffffffff82169050919050565b5f61193a82611911565b9050919050565b61194a81611930565b82525050565b5f6020820190506119635f830184611941565b92915050565b5f5ffd5b5f5ffd5b5f819050919050565b61198381611971565b811461198d575f5ffd5b50565b5f8135905061199e8161197a565b92915050565b5f819050919050565b6119b6816119a4565b81146119c0575f5ffd5b50565b5f813590506119d1816119ad565b92915050565b6119e081611930565b81146119ea575f5ffd5b50565b5f813590506119fb816119d7565b92915050565b5f5ffd5b5f5ffd5b5f5ffd5b5f5f83601f840112611a2257611a21611a01565b5b8235905067ffffffffffffffff811115611a3f57611a3e611a05565b5b602083019150836001820283011115611a5b57611a5a611a09565b5b9250929050565b5f5f5f5f5f5f5f5f5f6101008a8c031215611a8057611a7f611969565b5b5f611a8d8c828d01611990565b9950506020611a9e8c828d016119c3565b9850506040611aaf8c828d016119ed565b9750506060611ac08c828d016119ed565b9650506080611ad18c828d01611990565b95505060a0611ae28c828d016119ed565b94505060c08a013567ffffffffffffffff811115611b0357611b0261196d565b5b611b0f8c828d01611a0d565b935093505060e0611b228c828d01611990565b9150509295985092959850929598565b5f60208284031215611b4757611b46611969565b5b5f611b54848285016119ed565b91505092915050565b611b6681611971565b82525050565b5f602082019050611b7f5f830184611b5d565b92915050565b5f60208284031215611b9a57611b99611969565b5b5f611ba784828501611990565b91505092915050565b611bb9816119a4565b82525050565b5f81519050919050565b5f82825260208201905092915050565b8281835e5f83830152505050565b5f601f19601f8301169050919050565b5f611c0182611bbf565b611c0b8185611bc9565b9350611c1b818560208601611bd9565b611c2481611be7565b840191505092915050565b7f4e487b71000000000000000000000000000000000000000000000000000000005f52602160045260245ffd5b60038110611c6d57611c6c611c2f565b5b50565b5f819050611c7d82611c5c565b919050565b5f611c8c82611c70565b9050919050565b611c9c81611c82565b82525050565b5f61010082019050611cb65f83018b611bb0565b611cc3602083018a611941565b611cd06040830189611941565b611cdd6060830188611b5d565b611cea6080830187611941565b81810360a0830152611cfc8186611bf7565b9050611d0b60c0830185611b5d565b611d1860e0830184611c93565b9998505050505050505050565b5f8115159050919050565b611d3981611d25565b82525050565b5f602082019050611d525f830184611d30565b92915050565b5f604082019050611d6b5f830185611941565b611d786020830184611b5d565b9392505050565b5f5f60408385031215611d9557611d94611969565b5b5f611da2858286016119ed565b9250506020611db385828601611990565b9150509250929050565b7f496e766f69636552656769737472793a206e6f7420656d6974746572000000005f82015250565b5f611df1601c83611bc9565b9150611dfc82611dbd565b602082019050919050565b5f6020820190508181035f830152611e1e81611de5565b9050919050565b7f496e766f69636552656769737472793a207a65726f20726563697069656e74005f82015250565b5f611e59601f83611bc9565b9150611e6482611e25565b602082019050919050565b5f6020820190508181035f830152611e8681611e4d565b9050919050565b7f496e766f69636552656769737472793a20746f6b656e206e6f7420616c6c6f775f8201527f6564000000000000000000000000000000000000000000000000000000000000602082015250565b5f611ee7602283611bc9565b9150611ef282611e8d565b604082019050919050565b5f6020820190508181035f830152611f1481611edb565b9050919050565b7f496e766f69636552656769737472793a207a65726f20616d6f756e74000000005f82015250565b5f611f4f601c83611bc9565b9150611f5a82611f1b565b602082019050919050565b5f6020820190508181035f830152611f7c81611f43565b9050919050565b7f496e766f69636552656769737472793a20766174206e756d62657220746f6f205f8201527f6c6f6e6700000000000000000000000000000000000000000000000000000000602082015250565b5f611fdd602483611bc9565b9150611fe882611f83565b604082019050919050565b5f6020820190508181035f83015261200a81611fd1565b9050919050565b7f496e766f69636552656769737472793a206861736820757365640000000000005f82015250565b5f612045601a83611bc9565b915061205082612011565b602082019050919050565b5f6020820190508181035f83015261207281612039565b9050919050565b7f496e766f69636552656769737472793a20696420656d6974746572206d69736d5f8201527f6174636800000000000000000000000000000000000000000000000000000000602082015250565b5f6120d3602483611bc9565b91506120de82612079565b604082019050919050565b5f6020820190508181035f830152612100816120c7565b9050919050565b7f4e487b71000000000000000000000000000000000000000000000000000000005f52601160045260245ffd5b5f61213e82611971565b915061214983611971565b925082820190508082111561216157612160612107565b5b92915050565b7f496e766f69636552656769737472793a2069642073657175656e6365206d69735f8201527f6d61746368000000000000000000000000000000000000000000000000000000602082015250565b5f6121c1602583611bc9565b91506121cc82612167565b604082019050919050565b5f6020820190508181035f8301526121ee816121b5565b9050919050565b7f496e766f69636552656769737472793a20696420616c726561647920757365645f82015250565b5f612229602083611bc9565b9150612234826121f5565b602082019050919050565b5f6020820190508181035f8301526122568161221d565b9050919050565b7f4e487b71000000000000000000000000000000000000000000000000000000005f52604160045260245ffd5b7f4e487b71000000000000000000000000000000000000000000000000000000005f52602260045260245ffd5b5f60028204905060018216806122ce57607f821691505b6020821081036122e1576122e061228a565b5b50919050565b5f819050815f5260205f209050919050565b5f6020601f8301049050919050565b5f82821b905092915050565b5f600883026123437fffffffffffffffffffffffffffffffffffffffffffffffffffffffffffffffff82612308565b61234d8683612308565b95508019841693508086168417925050509392505050565b5f819050919050565b5f61238861238361237e84611971565b612365565b611971565b9050919050565b5f819050919050565b6123a18361236e565b6123b56123ad8261238f565b848454612314565b825550505050565b5f5f905090565b6123cc6123bd565b6123d7818484612398565b505050565b5b818110156123fa576123ef5f826123c4565b6001810190506123dd565b5050565b601f82111561243f57612410816122e7565b612419846122f9565b81016020851015612428578190505b61243c612434856122f9565b8301826123dc565b50505b505050565b5f82821c905092915050565b5f61245f5f1984600802612444565b1980831691505092915050565b5f6124778383612450565b9150826002028217905092915050565b61249082611bbf565b67ffffffffffffffff8111156124a9576124a861225d565b5b6124b382546122b7565b6124be8282856123fe565b5f60209050601f8311600181146124ef575f84156124dd578287015190505b6124e7858261246c565b86555061254e565b601f1984166124fd866122e7565b5f5b82811015612524578489015182556001820191506020850194506020810190506124ff565b86831015612541578489015161253d601f891682612450565b8355505b6001600288020188555050505b505050505050565b828183375f83830152505050565b5f61256f8385611bc9565b935061257c838584612556565b61258583611be7565b840190509392505050565b5f60a0820190506125a35f830189611941565b6125b06020830188611b5d565b6125bd6040830187611941565b81810360608301526125d0818587612564565b90506125df6080830184611b5d565b979650505050505050565b7f496e766f69636552656769737472793a207a65726f20636f6d6d697373696f6e5f8201527f20726563697069656e7400000000000000000000000000000000000000000000602082015250565b5f612644602a83611bc9565b915061264f826125ea565b604082019050919050565b5f6020820190508181035f83015261267181612638565b9050919050565b7f496e766f69636552656769737472793a207a65726f20656d69747465720000005f82015250565b5f6126ac601d83611bc9565b91506126b782612678565b602082019050919050565b5f6020820190508181035f8301526126d9816126a0565b9050919050565b7f496e766f69636552656769737472793a20696e76616c69642073657175656e635f8201527f6500000000000000000000000000000000000000000000000000000000000000602082015250565b5f61273a602183611bc9565b9150612745826126e0565b604082019050919050565b5f6020820190508181035f8301526127678161272e565b9050919050565b7f496e766f69636552656769737472793a206e6f742070656e64696e67000000005f82015250565b5f6127a2601c83611bc9565b91506127ad8261276e565b602082019050919050565b5f6020820190508181035f8301526127cf81612796565b9050919050565b5f6127e082611971565b91506127eb83611971565b92508282026127f981611971565b915082820484148315176128105761280f612107565b5b5092915050565b7f4e487b71000000000000000000000000000000000000000000000000000000005f52601260045260245ffd5b5f61284e82611971565b915061285983611971565b92508261286957612868612817565b5b828204905092915050565b5f61287e82611971565b915061288983611971565b92508282039050818111156128a1576128a0612107565b5b92915050565b5f6060820190506128ba5f830186611b5d565b6128c76020830185611941565b6128d46040830184611b5d565b949350505050565b7f496e766f69636552656769737472793a20636f6d6d697373696f6e20627073205f8201527f746f6f2068696768000000000000000000000000000000000000000000000000602082015250565b5f612936602883611bc9565b9150612941826128dc565b604082019050919050565b5f6020820190508181035f8301526129638161292a565b9050919050565b7f496e766f69636552656769737472793a20696e76616c696420696400000000005f82015250565b5f61299e601b83611bc9565b91506129a98261296a565b602082019050919050565b5f6020820190508181035f8301526129cb81612992565b9050919050565b7f496e766f69636552656769737472793a207a65726f20746f6b656e00000000005f82015250565b5f612a06601b83611bc9565b9150612a11826129d2565b602082019050919050565b5f6020820190508181035f830152612a33816129fa565b905091905056fea2646970667358221220bc7d0775cbee109afc2862d64fac7659bb7526175423ed45d927fd1f8ecf67ef64736f6c634300081c0033",
  "linkReferences": {},
  "deployedLinkReferences": {},
  "immutableReferences": {},
  "inputSourceName": "project/contracts/InvoiceRegistry.sol",
  "buildInfoId": "solc-0_8_28-c30603c20d805cc976c668358204815d32b99273"
}