{
  "_format": "hh3-artifact-1",
  "contractName": "InvoiceRegistry",
  "sourceName": "contracts/InvoiceRegistry.sol",
  "abi": [
    {
      "inputs": [
        {
          "internalType": "address",
          "name": "initialOwner",
          "type": "address"
        },
        {
          "internalType": "address",
          "name": "trustedVerifier_",
          "type": "address"
        },
        {
          "internalType": "address[]",
          "name": "tokens",
          "type": "address[]"
        },
        {
          "internalType": "address",
          "name": "commissionRecipient_",
          "type": "address"
        }
      ],
      "stateMutability": "nonpayable",
      "type": "constructor"
    },
    {
      "inputs": [
        {
          "internalType": "address",
          "name": "owner",
          "type": "address"
        }
      ],
      "name": "OwnableInvalidOwner",
      "type": "error"
    },
    {
      "inputs": [
        {
          "internalType": "address",
          "name": "account",
          "type": "address"
        }
      ],
      "name": "OwnableUnauthorizedAccount",
      "type": "error"
    },
    {
      "inputs": [],
      "name": "ReentrancyGuardReentrantCall",
      "type": "error"
    },
    {
      "inputs": [
        {
          "internalType": "address",
          "name": "token",
          "type": "address"
        }
      ],
      "name": "SafeERC20FailedOperation",
      "type": "error"
    },
    {
      "anonymous": false,
      "inputs": [
        {
          "indexed": false,
          "internalType": "uint256",
          "name": "newCommissionBps",
          "type": "uint256"
        }
      ],
      "name": "CommissionBpsUpdated",
      "type": "event"
    },
    {
      "anonymous": false,
      "inputs": [
        {
          "indexed": true,
          "internalType": "address",
          "name": "newRecipient",
          "type": "address"
        }
      ],
      "name": "CommissionRecipientUpdated",
      "type": "event"
    },
    {
      "anonymous": false,
      "inputs": [
        {
          "indexed": true,
          "internalType": "address",
          "name": "emitter",
          "type": "address"
        },
        {
          "indexed": false,
          "internalType": "uint256",
          "name": "nullifierHash",
          "type": "uint256"
        }
      ],
      "name": "EmitterRegistered",
      "type": "event"
    },
    {
      "anonymous": false,
      "inputs": [
        {
          "indexed": true,
          "internalType": "uint256",
          "name": "invoiceId",
          "type": "uint256"
        },
        {
          "indexed": true,
          "internalType": "address",
          "name": "emitter",
          "type": "address"
        }
      ],
      "name": "InvoiceCancelled",
      "type": "event"
    },
    {
      "anonymous": false,
      "inputs": [
        {
          "indexed": true,
          "internalType": "uint256",
          "name": "invoiceId",
          "type": "uint256"
        },
        {
          "indexed": true,
          "internalType": "bytes32",
          "name": "invoiceHash",
          "type": "bytes32"
        },
        {
          "indexed": true,
          "internalType": "address",
          "name": "emitter",
          "type": "address"
        },
        {
          "indexed": false,
          "internalType": "address",
          "name": "recipient",
          "type": "address"
        },
        {
          "indexed": false,
          "internalType": "uint256",
          "name": "amount",
          "type": "uint256"
        },
        {
          "indexed": false,
          "internalType": "address",
          "name": "token",
          "type": "address"
        },
        {
          "indexed": false,
          "internalType": "string",
          "name": "vatNumber",
          "type": "string"
        },
        {
          "indexed": false,
          "internalType": "uint256",
          "name": "worldIdNullifierHash",
          "type": "uint256"
        }
      ],
      "name": "InvoiceCreated",
      "type": "event"
    },
    {
      "anonymous": false,
      "inputs": [
        {
          "indexed": true,
          "internalType": "uint256",
          "name": "invoiceId",
          "type": "uint256"
        },
        {
          "indexed": true,
          "internalType": "address",
          "name": "payer",
          "type": "address"
        },
        {
          "indexed": false,
          "internalType": "uint256",
          "name": "amount",
          "type": "uint256"
        },
        {
          "indexed": false,
          "internalType": "address",
          "name": "token",
          "type": "address"
        },
        {
          "indexed": false,
          "internalType": "uint256",
          "name": "commissionAmount",
          "type": "uint256"
        }
      ],
      "name": "InvoicePaid",
      "type": "event"
    },
    {
      "anonymous": false,
      "inputs": [
        {
          "indexed": true,
          "internalType": "address",
          "name": "previousOwner",
          "type": "address"
        },
        {
          "indexed": true,
          "internalType": "address",
          "name": "newOwner",
          "type": "address"
        }
      ],
      "name": "OwnershipTransferred",
      "type": "event"
    },
    {
      "anonymous": false,
      "inputs": [
        {
          "indexed": true,
          "internalType": "address",
          "name": "newVerifier",
          "type": "address"
        }
      ],
      "name": "TrustedVerifierUpdated",
      "type": "event"
    },
    {
      "inputs": [],
      "name": "COMMISSION_BPS_DENOMINATOR",
      "outputs": [
        {
          "internalType": "uint256",
          "name": "",
          "type": "uint256"
        }
      ],
      "stateMutability": "view",
      "type": "function"
    },
    {
      "inputs": [
        {
          "internalType": "address",
          "name": "token",
          "type": "address"
        }
      ],
      "name": "addAllowedToken",
      "outputs": [],
      "stateMutability": "nonpayable",
      "type": "function"
    },
    {
      "inputs": [
        {
          "internalType": "address",
          "name": "",
          "type": "address"
        }
      ],
      "name": "allowedToken",
      "outputs": [
        {
          "internalType": "bool",
          "name": "",
          "type": "bool"
        }
      ],
      "stateMutability": "view",
      "type": "function"
    },
    {
      "inputs": [
        {
          "internalType": "uint256",
          "name": "invoiceId",
          "type": "uint256"
        }
      ],
      "name": "cancelInvoice",
      "outputs": [],
      "stateMutability": "nonpayable",
      "type": "function"
    },
    {
      "inputs": [],
      "name": "commissionBps",
      "outputs": [
        {
          "internalType": "uint256",
          "name": "",
          "type": "uint256"
        }
      ],
      "stateMutability": "view",
      "type": "function"
    },
    {
      "inputs": [],
      "name": "commissionRecipient",
      "outputs": [
        {
          "internalType": "address",
          "name": "",
          "type": "address"
        }
      ],
      "stateMutability": "view",
      "type": "function"
    },
    {
      "inputs": [
        {
          "internalType": "uint256",
          "name": "invoiceId",
          "type": "uint256"
        },
        {
          "internalType": "bytes32",
          "name": "invoiceHash_",
          "type": "bytes32"
        },
        {
          "internalType": "address",
          "name": "emitter",
          "type": "address"
        },
        {
          "internalType": "address",
          "name": "recipient",
          "type": "address"
        },
        {
          "internalType": "uint256",
          "name": "amount",
          "type": "uint256"
        },
        {
          "internalType": "address",
          "name": "token",
          "type": "address"
        },
        {
          "internalType": "string",
          "name": "vatNumber",
          "type": "string"
        },
        {
          "internalType": "uint256",
          "name": "year",
          "type": "uint256"
        },
        {
          "internalType": "uint256",
          "name": "month",
          "type": "uint256"
        }
      ],
      "name": "createInvoice",
      "outputs": [],
      "stateMutability": "nonpayable",
      "type": "function"
    },
    {
      "inputs": [
        {
          "internalType": "address",
          "name": "",
          "type": "address"
        }
      ],
      "name": "emitterWorldIdNullifier",
      "outputs": [
        {
          "internalType": "uint256",
          "name": "",
          "type": "uint256"
        }
      ],
      "stateMutability": "view",
      "type": "function"
    },
    {
      "inputs": [
        {
          "internalType": "uint256",
          "name": "invoiceId",
          "type": "uint256"
        }
      ],
      "name": "getInvoice",
      "outputs": [
        {
          "internalType": "bytes32",
          "name": "invoiceHash_",
          "type": "bytes32"
        },
        {
          "internalType": "address",
          "name": "emitter",
          "type": "address"
        },
        {
          "internalType": "address",
          "name": "recipient",
          "type": "address"
        },
        {
          "internalType": "uint256",
          "name": "amount",
          "type": "uint256"
        },
        {
          "internalType": "address",
          "name": "token",
          "type": "address"
        },
        {
          "internalType": "string",
          "name": "vatNumber",
          "type": "string"
        },
        {
          "internalType": "uint256",
          "name": "worldIdNullifierHash_",
          "type": "uint256"
        },
        {
          "internalType": "enum InvoiceRegistry.Status",
          "name": "status",
          "type": "uint8"
        }
      ],
      "stateMutability": "view",
      "type": "function"
    },
    {
      "inputs": [
        {
          "internalType": "uint256",
          "name": "worldIdNullifierHash",
          "type": "uint256"
        },
        {
          "internalType": "uint256",
          "name": "year",
          "type": "uint256"
        },
        {
          "internalType": "uint256",
          "name": "month",
          "type": "uint256"
        }
      ],
      "name": "getNextInvoiceId",
      "outputs": [
        {
          "internalType": "uint256",
          "name": "",
          "type": "uint256"
        }
      ],
      "stateMutability": "view",
      "type": "function"
    },
    {
      "inputs": [
        {
          "internalType": "uint256",
          "name": "worldIdNullifierHash",
          "type": "uint256"
        },
        {
          "internalType": "uint256",
          "name": "year",
          "type": "uint256"
        },
        {
          "internalType": "uint256",
          "name": "month",
          "type": "uint256"
        }
      ],
      "name": "getNextInvoiceSequence",
      "outputs": [
        {
          "internalType": "uint256",
          "name": "",
          "type": "uint256"
        }
      ],
      "stateMutability": "view",
      "type": "function"
    },
    {
      "inputs": [
        {
          "internalType": "address",
          "name": "",
          "type": "address"
        }
      ],
      "name": "isEmitterVerified",
      "outputs": [
        {
          "internalType": "bool",
          "name": "",
          "type": "bool"
        }
      ],
      "stateMutability": "view",
      "type": "function"
    },
    {
      "inputs": [],
      "name": "owner",
      "outputs": [
        {
          "internalType": "address",
          "name": "",
          "type": "address"
        }
      ],
      "stateMutability": "view",
      "type": "function"
    },
    {
      "inputs": [
        {
          "internalType": "uint160",
          "name": "worldIdPacked_",
          "type": "uint160"
        },
        {
          "internalType": "uint256",
          "name": "year",
          "type": "uint256"
        },
        {
          "internalType": "uint256",
          "name": "month",
          "type": "uint256"
        },
        {
          "internalType": "uint256",
          "name": "sequence",
          "type": "uint256"
        }
      ],
      "name": "packInvoiceId",
      "outputs": [
        {
          "internalType": "uint256",
          "name": "invoiceId",
          "type": "uint256"
        }
      ],
      "stateMutability": "pure",
      "type": "function"
    },
    {
      "inputs": [
        {
          "internalType": "uint256",
          "name": "invoiceId",
          "type": "uint256"
        }
      ],
      "name": "parseInvoiceId",
      "outputs": [
        {
          "internalType": "uint160",
          "name": "worldIdPacked_",
          "type": "uint160"
        },
        {
          "internalType": "uint256",
          "name": "year",
          "type": "uint256"
        },
        {
          "internalType": "uint256",
          "name": "month",
          "type": "uint256"
        },
        {
          "internalType": "uint256",
          "name": "sequence",
          "type": "uint256"
        }
      ],
      "stateMutability": "pure",
      "type": "function"
    },
    {
      "inputs": [
        {
          "internalType": "uint256",
          "name": "invoiceId",
          "type": "uint256"
        }
      ],
      "name": "payInvoice",
      "outputs": [],
      "stateMutability": "nonpayable",
      "type": "function"
    },
    {
      "inputs": [
        {
          "internalType": "address",
          "name": "emitter",
          "type": "address"
        },
        {
          "internalType": "uint256",
          "name": "nullifierHash",
          "type": "uint256"
        }
      ],
      "name": "registerEmitter",
      "outputs": [],
      "stateMutability": "nonpayable",
      "type": "function"
    },
    {
      "inputs": [],
      "name": "renounceOwnership",
      "outputs": [],
      "stateMutability": "nonpayable",
      "type": "function"
    },
    {
      "inputs": [
        {
          "internalType": "uint256",
          "name": "newBps",
          "type": "uint256"
        }
      ],
      "name": "setCommissionBps",
      "outputs": [],
      "stateMutability": "nonpayable",
      "type": "function"
    },
    {
      "inputs": [
        {
          "internalType": "address",
          "name": "newRecipient",
          "type": "address"
        }
      ],
      "name": "setCommissionRecipient",
      "outputs": [],
      "stateMutability": "nonpayable",
      "type": "function"
    },
    {
      "inputs": [
        {
          "internalType": "address",
          "name": "newVerifier",
          "type": "address"
        }
      ],
      "name": "setTrustedVerifier",
      "outputs": [],
      "stateMutability": "nonpayable",
      "type": "function"
    },
    {
      "inputs": [
        {
          "internalType": "address",
          "name": "newOwner",
          "type": "address"
        }
      ],
      "name": "transferOwnership",
      "outputs": [],
      "stateMutability": "nonpayable",
      "type": "function"
    },
    {
      "inputs": [],
      "name": "trustedVerifier",
      "outputs": [
        {
          "internalType": "address",
          "name": "",
          "type": "address"
        }
      ],
      "stateMutability": "view",
      "type": "function"
    },
    {
      "inputs": [
        {
          "internalType": "uint256",
          "name": "worldIdNullifierHash",
          "type": "uint256"
        }
      ],
      "name": "worldIdNullifierToPacked160",
      "outputs": [
        {
          "internalType": "uint160",
          "name": "",
          "type": "uint160"
        }
      ],
      "stateMutability": "pure",
      "type": "function"
    }
  ],
  "bytecode": "0x608060405234801561000f575f5ffd5b5060405161218238038061218283398101604081905261002e916102bb565b836001600160a01b03811661005d57604051631e4fbdf760e01b81525f60048201526024015b60405180910390fd5b610066816101c4565b5060017f9b779b17422d0df92223018b32b4d1fa46e071723d6817e2486d003becc55f00556001600160a01b0383166100e15760405162461bcd60e51b815260206004820152601e60248201527f496e766f69636552656769737472793a207a65726f20766572696669657200006044820152606401610054565b6001600160a01b03811661014a5760405162461bcd60e51b815260206004820152602a60248201527f496e766f69636552656769737472793a207a65726f20636f6d6d697373696f6e604482015269081c9958da5c1a595b9d60b21b6064820152608401610054565b600880546001600160a01b038086166001600160a01b031992831617909255600a80549284169290911691909117815560095581515f5b818110156101b9576101b184828151811061019e5761019e6103b8565b602002602001015161021360201b60201c565b600101610181565b5050505050506103cc565b5f80546001600160a01b038381166001600160a01b0319831681178455604051919092169283917f8be0079c531659141344cd1fd0a4f28419497f9722a3daafe3b4186f6b6457e09190a35050565b6001600160a01b0381166102695760405162461bcd60e51b815260206004820152601b60248201527f496e766f69636552656769737472793a207a65726f20746f6b656e00000000006044820152606401610054565b6001600160a01b03165f908152600560205260409020805460ff19166001179055565b80516001600160a01b03811681146102a2575f5ffd5b919050565b634e487b7160e01b5f52604160045260245ffd5b5f5f5f5f608085870312156102ce575f5ffd5b6102d78561028c565b93506102e56020860161028c565b60408601519093506001600160401b03811115610300575f5ffd5b8501601f81018713610310575f5ffd5b80516001600160401b03811115610329576103296102a7565b604051600582901b90603f8201601f191681016001600160401b0381118282101715610357576103576102a7565b60405291825260208184018101929081018a841115610374575f5ffd5b6020850194505b8385101561039a5761038c8561028c565b81526020948501940161037b565b5094506103ad925050506060860161028c565b905092959194509250565b634e487b7160e01b5f52603260045260245ffd5b611da9806103d95f395ff3fe608060405234801561000f575f5ffd5b5060043610610153575f3560e01c80638da5cb5b116100bf578063d6b4503811610079578063d6b450381461035a578063da9c273d14610363578063e733182314610376578063f2fde38b14610389578063f44be9a51461039c578063f795bb9b146103af575f5ffd5b80638da5cb5b146102d05780638e90b58c146102e05780639ac4d5a314610302578063ac60a6cd14610315578063b0bbed5014610328578063c812d1ca14610347575f5ffd5b80634178617f116101105780634178617f14610200578063715018a614610213578063756742f81461021b5780637e197fbd1461024d57806380e4b67f146102aa5780638340f22c146102bd575f5ffd5b8063052b82dd1461015757806306fd154a14610187578063284fd8e51461019a57806329568d6d146101af578063321988a1146101c25780633a23cc0a146101d9575b5f5ffd5b60085461016a906001600160a01b031681565b6040516001600160a01b0390911681526020015b60405180910390f35b600a5461016a906001600160a01b031681565b6101ad6101a83660046117ff565b6103c2565b005b61016a6101bd36600461181a565b610442565b6101cb61271081565b60405190815260200161017e565b6101ec6101e736600461181a565b610474565b60405161017e989796959493929190611865565b6101ad61020e3660046117ff565b610574565b6101ad610588565b61023d6102293660046117ff565b60056020525f908152604090205460ff1681565b604051901515815260200161017e565b61028061025b36600461181a565b606081901c9161ffff605083901c169160ff604882901c169164ffffffffff90911690565b604080516001600160a01b039095168552602085019390935291830152606082015260800161017e565b6101ad6102b83660046118eb565b61059b565b6101ad6102cb366004611915565b610732565b5f546001600160a01b031661016a565b61023d6102ee3660046117ff565b60036020525f908152604090205460ff1681565b6101cb6103103660046119ee565b610c5a565b6101ad61032336600461181a565b610d24565b6101cb6103363660046117ff565b60076020525f908152604090205481565b6101cb6103553660046119ee565b610f52565b6101cb60095481565b6101ad61037136600461181a565b610f75565b6101ad61038436600461181a565b611093565b6101ad6103973660046117ff565b611139565b6101cb6103aa366004611a17565b611173565b6101ad6103bd3660046117ff565b611292565b6103ca611339565b6001600160a01b0381166103f95760405162461bcd60e51b81526004016103f090611a4f565b60405180910390fd5b600a80546001600160a01b0319166001600160a01b0383169081179091556040517ff433abf3170ac388734721d2bfc716ed3334144695be86f04faec6e558be6cca905f90a250565b5f8160405160200161045691815260200190565b60408051601f19818403018152919052805160209091012092915050565b5f5f5f5f5f60605f5f5f6104878a611365565b805460018201546002830154600384015460048501546006860154600787015460058801805498995096976001600160a01b0396871697958716969495939094169360ff9091169083906104da90611a99565b80601f016020809104026020016040519081016040528092919081815260200182805461050690611a99565b80156105515780601f1061052857610100808354040283529160200191610551565b820191905f5260205f20905b81548152906001019060200180831161053457829003601f168201915b505050505092509850985098509850985098509850985050919395975091939597565b61057c611339565b610585816113d3565b50565b610590611339565b6105995f61144c565b565b6008546001600160a01b031633146106035760405162461bcd60e51b815260206004820152602560248201527f496e766f69636552656769737472793a206e6f7420747275737465642076657260448201526434b334b2b960d91b60648201526084016103f0565b6001600160a01b0382166106595760405162461bcd60e51b815260206004820152601d60248201527f496e766f69636552656769737472793a207a65726f20656d697474657200000060448201526064016103f0565b5f8181526004602052604090205460ff16156106b75760405162461bcd60e51b815260206004820152601f60248201527f496e766f69636552656769737472793a206e756c6c696669657220757365640060448201526064016103f0565b5f8181526004602090815260408083208054600160ff1991821681179092556001600160a01b03871680865260038552838620805490921690921790556007835292819020849055518381527f2f634aa4f64bab988bcd5c8c71b9f013ceb4e470e3ca92965490656ffa64afc6910160405180910390a25050565b336001600160a01b0389161461078a5760405162461bcd60e51b815260206004820152601c60248201527f496e766f69636552656769737472793a206e6f7420656d69747465720000000060448201526064016103f0565b6001600160a01b0388165f9081526003602052604090205460ff166107c15760405162461bcd60e51b81526004016103f090611ad1565b6001600160a01b0387166108175760405162461bcd60e51b815260206004820152601f60248201527f496e766f69636552656769737472793a207a65726f20726563697069656e740060448201526064016103f0565b6001600160a01b0385165f9081526005602052604090205460ff1661084e5760405162461bcd60e51b81526004016103f090611b16565b5f861161089d5760405162461bcd60e51b815260206004820152601c60248201527f496e766f69636552656769737472793a207a65726f20616d6f756e740000000060448201526064016103f0565b60408311156108fa5760405162461bcd60e51b8152602060048201526024808201527f496e766f69636552656769737472793a20766174206e756d62657220746f6f206044820152636c6f6e6760e01b60648201526084016103f0565b5f8981526002602052604090205460ff16156109585760405162461bcd60e51b815260206004820152601a60248201527f496e766f69636552656769737472793a2068617368207573656400000000000060448201526064016103f0565b6107d0821015801561096c575061270f8211155b6109b85760405162461bcd60e51b815260206004820152601d60248201527f496e766f69636552656769737472793a20696e76616c6964207965617200000060448201526064016103f0565b600181101580156109ca5750600c8111155b6109e65760405162461bcd60e51b81526004016103f090611b58565b6109f28a89848461149b565b6001600160a01b0388165f9081526007602052604081205490819003610a6c5760405162461bcd60e51b815260206004820152602960248201527f496e766f69636552656769737472793a20656d697474657220776f726c64206960448201526864206d697373696e6760b81b60648201526084016103f0565b5f8a8152600260205260408120805460ff19166001179055610a8e84846116b4565b5f838152600660209081526040808320848452909152902054909150610ab5906001611ba3565b5f838152600660209081526040808320858452825291829020929092558051610100810182528d81526001600160a01b03808e16828501528c811682840152606082018c90528a1660808201528151601f89018490048402810184019092528782529160a08301919089908990819084018382808284375f920182905250938552505050602082018590526040909101525f8d815260016020818152604092839020845181559084015191810180546001600160a01b03199081166001600160a01b039485161790915592840151600282018054851691841691909117905560608401516003820155608084015160048201805490941692169190911790915560a08201516005820190610bc99082611c16565b5060c0820151600682015560e082015160078201805460ff19166001836002811115610bf757610bf7611831565b0217905550905050896001600160a01b03168b8d7f502aaa82676262fc025d1eaa188ed92b7e00b71dc3f32a0356d4c70e5462d9be8c8c8c8c8c8a604051610c4496959493929190611cd1565b60405180910390a4505050505050505050505050565b5f6107d08310158015610c6f575061270f8311155b610cbb5760405162461bcd60e51b815260206004820152601d60248201527f496e766f69636552656769737472793a20696e76616c6964207965617200000060448201526064016103f0565b60018210158015610ccd5750600c8211155b610ce95760405162461bcd60e51b81526004016103f090611b58565b5f610cf484846116b4565b5f868152600660209081526040808320848452909152902054909150610d1b906001611ba3565b95945050505050565b610d2c6116d2565b5f610d3682611365565b90505f600782015460ff166002811115610d5257610d52611831565b14610d9f5760405162461bcd60e51b815260206004820152601c60248201527f496e766f69636552656769737472793a206e6f742070656e64696e670000000060448201526064016103f0565b60018101546001600160a01b03165f9081526003602052604090205460ff16610dda5760405162461bcd60e51b81526004016103f090611ad1565b60048101546001600160a01b03165f9081526005602052604090205460ff16610e155760405162461bcd60e51b81526004016103f090611b16565b60038101546009545f9061271090610e2d9084611d2a565b610e379190611d41565b90508015610e6757600a546001600160a01b0316610e675760405162461bcd60e51b81526004016103f090611a4f565b5f610e728284611d60565b60078501805460ff191660011790556004850154604080518681526001600160a01b0390921660208301528101849052909150339086907f1e9d5d6c031b4874171949ea430d3fb4672ea0580b179f82f6f1439e9b8be5c79060600160405180910390a360048401546001600160a01b03168215610f0657600a54610f06906001600160a01b038381169133911686611700565b6001850154610f24906001600160a01b038381169133911685611700565b505050505061058560017f9b779b17422d0df92223018b32b4d1fa46e071723d6817e2486d003becc55f0055565b5f5f610f5f858585610c5a565b9050610d1b610f6d86610442565b858584611173565b5f610f7f82611365565b60018101549091506001600160a01b03163314610fde5760405162461bcd60e51b815260206004820152601c60248201527f496e766f69636552656769737472793a206e6f7420656d69747465720000000060448201526064016103f0565b5f600782015460ff166002811115610ff857610ff8611831565b146110455760405162461bcd60e51b815260206004820152601c60248201527f496e766f69636552656769737472793a206e6f742070656e64696e670000000060448201526064016103f0565b60078101805460ff1916600217905560018101546040516001600160a01b039091169083907f1893bd55c53ca5d28463267b3794ea27b1c3fc3b0cc5f86e0c5b613ad4156f08905f90a35050565b61109b611339565b6127108111156110fe5760405162461bcd60e51b815260206004820152602860248201527f496e766f69636552656769737472793a20636f6d6d697373696f6e20627073206044820152670e8dede40d0d2ced60c31b60648201526084016103f0565b60098190556040518181527f8534a60516a09ee1a02182db474e9d339a059c7c662e8269d8dbffda6c75092b9060200160405180910390a150565b611141611339565b6001600160a01b03811661116a57604051631e4fbdf760e01b81525f60048201526024016103f0565b6105858161144c565b5f61ffff8411156111c65760405162461bcd60e51b815260206004820152601e60248201527f496e766f69636552656769737472793a2079656172206f766572666c6f77000060448201526064016103f0565b600183101580156111d85750600c8311155b6111f45760405162461bcd60e51b81526004016103f090611b58565b5f82118015611208575064ffffffffff8211155b61125e5760405162461bcd60e51b815260206004820152602160248201527f496e766f69636552656769737472793a20696e76616c69642073657175656e636044820152606560f81b60648201526084016103f0565b64ffffffffff821660488460ff16901b60508661ffff16901b6060886001600160a01b0316901b1717179050949350505050565b61129a611339565b6001600160a01b0381166112f05760405162461bcd60e51b815260206004820152601e60248201527f496e766f69636552656769737472793a207a65726f207665726966696572000060448201526064016103f0565b600880546001600160a01b0319166001600160a01b0383169081179091556040517f06327d5a55b2af341cf157d25cce9bda2c059bcbf398c0aa8a34b3666f0746e5905f90a250565b5f546001600160a01b031633146105995760405163118cdaa760e01b81523360048201526024016103f0565b5f8181526001602081905260408220908101546001600160a01b03166113cd5760405162461bcd60e51b815260206004820152601b60248201527f496e766f69636552656769737472793a20696e76616c6964206964000000000060448201526064016103f0565b92915050565b6001600160a01b0381166114295760405162461bcd60e51b815260206004820152601b60248201527f496e766f69636552656769737472793a207a65726f20746f6b656e000000000060448201526064016103f0565b6001600160a01b03165f908152600560205260409020805460ff19166001179055565b5f80546001600160a01b038381166001600160a01b0319831681178455604051919092169283917f8be0079c531659141344cd1fd0a4f28419497f9722a3daafe3b4186f6b6457e09190a35050565b6001600160a01b0383165f90815260076020526040902054606085901c9061ffff605087901c169060ff604888901c169064ffffffffff8816906114de81610442565b6001600160a01b0316856001600160a01b03161461154c5760405162461bcd60e51b815260206004820152602560248201527f496e766f69636552656769737472793a20696420776f726c64206964206d69736044820152640dac2e8c6d60db1b60648201526084016103f0565b868414801561155a57508583145b6115b25760405162461bcd60e51b815260206004820152602360248201527f496e766f69636552656769737472793a20696420706572696f64206d69736d616044820152620e8c6d60eb1b60648201526084016103f0565b5f6115bd88886116b4565b5f8381526006602090815260408083208484529091529020549091506115e4906001611ba3565b83146116405760405162461bcd60e51b815260206004820152602560248201527f496e766f69636552656769737472793a2069642073657175656e6365206d69736044820152640dac2e8c6d60db1b60648201526084016103f0565b5f8a815260016020819052604090912001546001600160a01b0316156116a85760405162461bcd60e51b815260206004820181905260248201527f496e766f69636552656769737472793a20696420616c7265616479207573656460448201526064016103f0565b50505050505050505050565b5f816116c1846064611d2a565b6116cb9190611ba3565b9392505050565b6116da61173c565b60027f9b779b17422d0df92223018b32b4d1fa46e071723d6817e2486d003becc55f0055565b61170e84848484600161177e565b61173657604051635274afe760e01b81526001600160a01b03851660048201526024016103f0565b50505050565b7f9b779b17422d0df92223018b32b4d1fa46e071723d6817e2486d003becc55f005460020361059957604051633ee5aeb560e01b815260040160405180910390fd5b6040516323b872dd60e01b5f8181526001600160a01b038781166004528616602452604485905291602083606481808c5af1925060015f511483166117da5783831516156117ce573d5f823e3d81fd5b5f883b113d1516831692505b604052505f60605295945050505050565b6001600160a01b0381168114610585575f5ffd5b5f6020828403121561180f575f5ffd5b81356116cb816117eb565b5f6020828403121561182a575f5ffd5b5035919050565b634e487b7160e01b5f52602160045260245ffd5b6003811061186157634e487b7160e01b5f52602160045260245ffd5b9052565b8881526001600160a01b03888116602080840191909152888216604084015260608301889052908616608083015261010060a0830181905285519083018190525f918190870161012085015e5f6101208285010152610120601f19601f8301168401019150508360c08301526118de60e0830184611845565b9998505050505050505050565b5f5f604083850312156118fc575f5ffd5b8235611907816117eb565b946020939093013593505050565b5f5f5f5f5f5f5f5f5f5f6101208b8d03121561192f575f5ffd5b8a35995060208b0135985060408b0135611948816117eb565b975060608b0135611958816117eb565b965060808b0135955060a08b013561196f816117eb565b945060c08b013567ffffffffffffffff81111561198a575f5ffd5b8b015f80601f83018f1361199c575f5ffd5b50813567ffffffffffffffff8111156119b3575f5ffd5b6020830191508e60208285010111156119ca575f5ffd5b9b9e9a9d50989b979a969995989760e0810135966101009091013595509350505050565b5f5f5f60608486031215611a00575f5ffd5b505081359360208301359350604090920135919050565b5f5f5f5f60808587031215611a2a575f5ffd5b8435611a35816117eb565b966020860135965060408601359560600135945092505050565b6020808252602a908201527f496e766f69636552656769737472793a207a65726f20636f6d6d697373696f6e604082015269081c9958da5c1a595b9d60b21b606082015260800190565b600181811c90821680611aad57607f821691505b602082108103611acb57634e487b7160e01b5f52602260045260245ffd5b50919050565b60208082526025908201527f496e766f69636552656769737472793a20656d6974746572206e6f74207665726040820152641a599a595960da1b606082015260800190565b60208082526022908201527f496e766f69636552656769737472793a20746f6b656e206e6f7420616c6c6f77604082015261195960f21b606082015260800190565b6020808252601e908201527f496e766f69636552656769737472793a20696e76616c6964206d6f6e74680000604082015260600190565b634e487b7160e01b5f52601160045260245ffd5b808201808211156113cd576113cd611b8f565b634e487b7160e01b5f52604160045260245ffd5b601f821115611c1157805f5260205f20601f840160051c81016020851015611bef5750805b601f840160051c820191505b81811015611c0e575f8155600101611bfb565b50505b505050565b815167ffffffffffffffff811115611c3057611c30611bb6565b611c4481611c3e8454611a99565b84611bca565b6020601f821160018114611c76575f8315611c5f5750848201515b5f19600385901b1c1916600184901b178455611c0e565b5f84815260208120601f198516915b82811015611ca55787850151825560209485019460019092019101611c85565b5084821015611cc257868401515f19600387901b60f8161c191681555b50505050600190811b01905550565b6001600160a01b038781168252602082018790528516604082015260a0606082018190528101839052828460c08301375f60c084830101525f60c0601f19601f8601168301019050826080830152979650505050505050565b80820281158282048414176113cd576113cd611b8f565b5f82611d5b57634e487b7160e01b5f52601260045260245ffd5b500490565b818103818111156113cd576113cd611b8f56fea264697066735822122093d3d52eebff290bf4e33adac76c8c5adb32339055c5eb5756723a432dc349d464736f6c634300081c0033",
  "linkReferences": {},
  "deployedLinkReferences": {},
  "immutableReferences": {},
  "inputSourceName": "project/contracts/InvoiceRegistry.sol",
  "buildInfoId": "solc-0_8_28-bae256e9eeb6ad9bcafb8cea4c687aaf46657803"
}