{
  "_format": "hh3-artifact-1",
  "contractName": "InvoiceRegistry",
  "sourceName": "contracts/InvoiceRegistry.sol",
  "abi": [
    {
      "inputs": [
        {
          "internalType": "address",
          "name": "initialOwner",
          "type": "address"
        },
        {
          "internalType": "address[]",
          "name": "tokens",
          "type": "address[]"
        },
        {
          "internalType": "address",
          "name": "commissionRecipient_",
          "type": "address"
        }
      ],
      "stateMutability": "nonpayable",
      "type": "constructor"
    },
    {
      "inputs": [
        {
          "internalType": "address",
          "name": "owner",
          "type": "address"
        }
      ],
      "name": "OwnableInvalidOwner",
      "type": "error"
    },
    {
      "inputs": [
        {
          "internalType": "address",
          "name": "account",
          "type": "address"
        }
      ],
      "name": "OwnableUnauthorizedAccount",
      "type": "error"
    },
    {
      "inputs": [],
      "name": "ReentrancyGuardReentrantCall",
      "type": "error"
    },
    {
      "inputs": [
        {
          "internalType": "address",
          "name": "token",
          "type": "address"
        }
      ],
      "name": "SafeERC20FailedOperation",
      "type": "error"
    },
    {
      "anonymous": false,
      "inputs": [
        {
          "indexed": false,
          "internalType": "uint256",
          "name": "newCommissionBps",
          "type": "uint256"
        }
      ],
      "name": "CommissionBpsUpdated",
      "type": "event"
    },
    {
      "anonymous": false,
      "inputs": [
        {
          "indexed": true,
          "internalType": "address",
          "name": "newRecipient",
          "type": "address"
        }
      ],
      "name": "CommissionRecipientUpdated",
      "type": "event"
    },
    {
      "anonymous": false,
      "inputs": [
        {
          "indexed": true,
          "internalType": "uint256",
          "name": "invoiceId",
          "type": "uint256"
        },
        {
          "indexed": true,
          "internalType": "address",
          "name": "emitter",
          "type": "address"
        }
      ],
      "name": "InvoiceCancelled",
      "type": "event"
    },
    {
      "anonymous": false,
      "inputs": [
        {
          "indexed": true,
          "internalType": "uint256",
          "name": "invoiceId",
          "type": "uint256"
        },
        {
          "indexed": true,
          "internalType": "bytes32",
          "name": "invoiceHash",
          "type": "bytes32"
        },
        {
          "indexed": true,
          "internalType": "address",
          "name": "emitter",
          "type": "address"
        },
        {
          "indexed": false,
          "internalType": "address",
          "name": "recipient",
          "type": "address"
        },
        {
          "indexed": false,
          "internalType": "uint256",
          "name": "amount",
          "type": "uint256"
        },
        {
          "indexed": false,
          "internalType": "address",
          "name": "token",
          "type": "address"
        },
        {
          "indexed": false,
          "internalType": "string",
          "name": "vatNumber",
          "type": "string"
        },
        {
          "indexed": false,
          "internalType": "uint256",
          "name": "worldIdNullifierHash",
          "type": "uint256"
        }
      ],
      "name": "InvoiceCreated",
      "type": "event"
    },
    {
      "anonymous": false,
      "inputs": [
        {
          "indexed": true,
          "internalType": "uint256",
          "name": "invoiceId",
          "type": "uint256"
        },
        {
          "indexed": true,
          "internalType": "address",
          "name": "payer",
          "type": "address"
        },
        {
          "indexed": false,
          "internalType": "uint256",
          "name": "amount",
          "type": "uint256"
        },
        {
          "indexed": false,
          "internalType": "address",
          "name": "token",
          "type": "address"
        },
        {
          "indexed": false,
          "internalType": "uint256",
          "name": "commissionAmount",
          "type": "uint256"
        }
      ],
      "name": "InvoicePaid",
      "type": "event"
    },
    {
      "anonymous": false,
      "inputs": [
        {
          "indexed": true,
          "internalType": "address",
          "name": "previousOwner",
          "type": "address"
        },
        {
          "indexed": true,
          "internalType": "address",
          "name": "newOwner",
          "type": "address"
        }
      ],
      "name": "OwnershipTransferred",
      "type": "event"
    },
    {
      "anonymous": false,
      "inputs": [
        {
          "indexed": true,
          "internalType": "address",
          "name": "emitter",
          "type": "address"
        },
        {
          "indexed": true,
          "internalType": "uint256",
          "name": "nullifierHash",
          "type": "uint256"
        }
      ],
      "name": "WorldIdBound",
      "type": "event"
    },
    {
      "inputs": [],
      "name": "COMMISSION_BPS_DENOMINATOR",
      "outputs": [
        {
          "internalType": "uint256",
          "name": "",
          "type": "uint256"
        }
      ],
      "stateMutability": "view",
      "type": "function"
    },
    {
      "inputs": [
        {
          "internalType": "address",
          "name": "token",
          "type": "address"
        }
      ],
      "name": "addAllowedToken",
      "outputs": [],
      "stateMutability": "nonpayable",
      "type": "function"
    },
    {
      "inputs": [
        {
          "internalType": "address",
          "name": "",
          "type": "address"
        }
      ],
      "name": "allowedToken",
      "outputs": [
        {
          "internalType": "bool",
          "name": "",
          "type": "bool"
        }
      ],
      "stateMutability": "view",
      "type": "function"
    },
    {
      "inputs": [
        {
          "internalType": "uint256",
          "name": "nullifierHash",
          "type": "uint256"
        }
      ],
      "name": "bindWorldId",
      "outputs": [],
      "stateMutability": "nonpayable",
      "type": "function"
    },
    {
      "inputs": [
        {
          "internalType": "uint256",
          "name": "invoiceId",
          "type": "uint256"
        }
      ],
      "name": "cancelInvoice",
      "outputs": [],
      "stateMutability": "nonpayable",
      "type": "function"
    },
    {
      "inputs": [],
      "name": "commissionBps",
      "outputs": [
        {
          "internalType": "uint256",
          "name": "",
          "type": "uint256"
        }
      ],
      "stateMutability": "view",
      "type": "function"
    },
    {
      "inputs": [],
      "name": "commissionRecipient",
      "outputs": [
        {
          "internalType": "address",
          "name": "",
          "type": "address"
        }
      ],
      "stateMutability": "view",
      "type": "function"
    },
    {
      "inputs": [
        {
          "internalType": "uint256",
          "name": "invoiceId",
          "type": "uint256"
        },
        {
          "internalType": "bytes32",
          "name": "invoiceHash_",
          "type": "bytes32"
        },
        {
          "internalType": "address",
          "name": "emitter",
          "type": "address"
        },
        {
          "internalType": "address",
          "name": "recipient",
          "type": "address"
        },
        {
          "internalType": "uint256",
          "name": "amount",
          "type": "uint256"
        },
        {
          "internalType": "address",
          "name": "token",
          "type": "address"
        },
        {
          "internalType": "string",
          "name": "vatNumber",
          "type": "string"
        },
        {
          "internalType": "uint256",
          "name": "worldIdNullifierHash_",
          "type": "uint256"
        }
      ],
      "name": "createInvoice",
      "outputs": [],
      "stateMutability": "nonpayable",
      "type": "function"
    },
    {
      "inputs": [
        {
          "internalType": "uint256",
          "name": "invoiceId",
          "type": "uint256"
        }
      ],
      "name": "getInvoice",
      "outputs": [
        {
          "internalType": "bytes32",
          "name": "invoiceHash_",
          "type": "bytes32"
        },
        {
          "internalType": "address",
          "name": "emitter",
          "type": "address"
        },
        {
          "internalType": "address",
          "name": "recipient",
          "type": "address"
        },
        {
          "internalType": "uint256",
          "name": "amount",
          "type": "uint256"
        },
        {
          "internalType": "address",
          "name": "token",
          "type": "address"
        },
        {
          "internalType": "string",
          "name": "vatNumber",
          "type": "string"
        },
        {
          "internalType": "uint256",
          "name": "worldIdNullifierHash_",
          "type": "uint256"
        },
        {
          "internalType": "enum InvoiceRegistry.Status",
          "name": "status",
          "type": "uint8"
        }
      ],
      "stateMutability": "view",
      "type": "function"
    },
    {
      "inputs": [
        {
          "internalType": "address",
          "name": "emitter",
          "type": "address"
        }
      ],
      "name": "getInvoiceCountForEmitter",
      "outputs": [
        {
          "internalType": "uint256",
          "name": "",
          "type": "uint256"
        }
      ],
      "stateMutability": "view",
      "type": "function"
    },
    {
      "inputs": [
        {
          "internalType": "address",
          "name": "emitter",
          "type": "address"
        }
      ],
      "name": "getLastInvoiceIdForEmitter",
      "outputs": [
        {
          "internalType": "uint256",
          "name": "",
          "type": "uint256"
        }
      ],
      "stateMutability": "view",
      "type": "function"
    },
    {
      "inputs": [
        {
          "internalType": "address",
          "name": "emitter",
          "type": "address"
        }
      ],
      "name": "getNextInvoiceId",
      "outputs": [
        {
          "internalType": "uint256",
          "name": "",
          "type": "uint256"
        }
      ],
      "stateMutability": "view",
      "type": "function"
    },
    {
      "inputs": [
        {
          "internalType": "address",
          "name": "emitter",
          "type": "address"
        },
        {
          "internalType": "uint256",
          "name": "nullifierHash",
          "type": "uint256"
        }
      ],
      "name": "isWorldIdAuthorizedForEmitter",
      "outputs": [
        {
          "internalType": "bool",
          "name": "",
          "type": "bool"
        }
      ],
      "stateMutability": "view",
      "type": "function"
    },
    {
      "inputs": [],
      "name": "owner",
      "outputs": [
        {
          "internalType": "address",
          "name": "",
          "type": "address"
        }
      ],
      "stateMutability": "view",
      "type": "function"
    },
    {
      "inputs": [
        {
          "internalType": "address",
          "name": "emitter",
          "type": "address"
        },
        {
          "internalType": "uint256",
          "name": "seq",
          "type": "uint256"
        }
      ],
      "name": "packInvoiceId",
      "outputs": [
        {
          "internalType": "uint256",
          "name": "invoiceId",
          "type": "uint256"
        }
      ],
      "stateMutability": "pure",
      "type": "function"
    },
    {
      "inputs": [
        {
          "internalType": "uint256",
          "name": "invoiceId",
          "type": "uint256"
        }
      ],
      "name": "parseInvoiceId",
      "outputs": [
        {
          "internalType": "address",
          "name": "emitter",
          "type": "address"
        },
        {
          "internalType": "uint256",
          "name": "seq",
          "type": "uint256"
        }
      ],
      "stateMutability": "pure",
      "type": "function"
    },
    {
      "inputs": [
        {
          "internalType": "uint256",
          "name": "invoiceId",
          "type": "uint256"
        }
      ],
      "name": "payInvoice",
      "outputs": [],
      "stateMutability": "nonpayable",
      "type": "function"
    },
    {
      "inputs": [],
      "name": "renounceOwnership",
      "outputs": [],
      "stateMutability": "nonpayable",
      "type": "function"
    },
    {
      "inputs": [
        {
          "internalType": "uint256",
          "name": "newBps",
          "type": "uint256"
        }
      ],
      "name": "setCommissionBps",
      "outputs": [],
      "stateMutability": "nonpayable",
      "type": "function"
    },
    {
      "inputs": [
        {
          "internalType": "address",
          "name": "newRecipient",
          "type": "address"
        }
      ],
      "name": "setCommissionRecipient",
      "outputs": [],
      "stateMutability": "nonpayable",
      "type": "function"
    },
    {
      "inputs": [
        {
          "internalType": "address",
          "name": "newOwner",
          "type": "address"
        }
      ],
      "name": "transferOwnership",
      "outputs": [],
      "stateMutability": "nonpayable",
      "type": "function"
    }
  ],
  "bytecode": "0x608060405234801561000f575f5ffd5b5060405161357738038061357783398181016040528101906100319190610550565b825f73ffffffffffffffffffffffffffffffffffffffff168173ffffffffffffffffffffffffffffffffffffffff16036100a2575f6040517f1e4fbdf700000000000000000000000000000000000000000000000000000000815260040161009991906105cb565b60405180910390fd5b6100b1816101dc60201b60201c565b5060016100d06100c561029d60201b60201c565b6102c660201b60201c565b5f01819055505f73ffffffffffffffffffffffffffffffffffffffff168173ffffffffffffffffffffffffffffffffffffffff1603610144576040517f08c379a000000000000000000000000000000000000000000000000000000000815260040161013b90610664565b60405180910390fd5b8060075f6101000a81548173ffffffffffffffffffffffffffffffffffffffff021916908373ffffffffffffffffffffffffffffffffffffffff160217905550600a6006819055505f825190505f5f90505b818110156101d2576101c78482815181106101b4576101b3610682565b5b60200260200101516102cf60201b60201c565b806001019050610196565b5050505050610717565b5f5f5f9054906101000a900473ffffffffffffffffffffffffffffffffffffffff169050815f5f6101000a81548173ffffffffffffffffffffffffffffffffffffffff021916908373ffffffffffffffffffffffffffffffffffffffff1602179055508173ffffffffffffffffffffffffffffffffffffffff168173ffffffffffffffffffffffffffffffffffffffff167f8be0079c531659141344cd1fd0a4f28419497f9722a3daafe3b4186f6b6457e060405160405180910390a35050565b5f7f9b779b17422d0df92223018b32b4d1fa46e071723d6817e2486d003becc55f005f1b905090565b5f819050919050565b5f73ffffffffffffffffffffffffffffffffffffffff168173ffffffffffffffffffffffffffffffffffffffff160361033d576040517f08c379a0000000000000000000000000000000000000000000000000000000008152600401610334906106f9565b60405180910390fd5b600160035f8373ffffffffffffffffffffffffffffffffffffffff1673ffffffffffffffffffffffffffffffffffffffff1681526020019081526020015f205f6101000a81548160ff02191690831515021790555050565b5f604051905090565b5f5ffd5b5f5ffd5b5f73ffffffffffffffffffffffffffffffffffffffff82169050919050565b5f6103cf826103a6565b9050919050565b6103df816103c5565b81146103e9575f5ffd5b50565b5f815190506103fa816103d6565b92915050565b5f5ffd5b5f601f19601f8301169050919050565b7f4e487b71000000000000000000000000000000000000000000000000000000005f52604160045260245ffd5b61044a82610404565b810181811067ffffffffffffffff8211171561046957610468610414565b5b80604052505050565b5f61047b610395565b90506104878282610441565b919050565b5f67ffffffffffffffff8211156104a6576104a5610414565b5b602082029050602081019050919050565b5f5ffd5b5f6104cd6104c88461048c565b610472565b905080838252602082019050602084028301858111156104f0576104ef6104b7565b5b835b81811015610519578061050588826103ec565b8452602084019350506020810190506104f2565b5050509392505050565b5f82601f83011261053757610536610400565b5b81516105478482602086016104bb565b91505092915050565b5f5f5f606084860312156105675761056661039e565b5b5f610574868287016103ec565b935050602084015167ffffffffffffffff811115610595576105946103a2565b5b6105a186828701610523565b92505060406105b2868287016103ec565b9150509250925092565b6105c5816103c5565b82525050565b5f6020820190506105de5f8301846105bc565b92915050565b5f82825260208201905092915050565b7f496e766f69636552656769737472793a207a65726f20636f6d6d697373696f6e5f8201527f20726563697069656e7400000000000000000000000000000000000000000000602082015250565b5f61064e602a836105e4565b9150610659826105f4565b604082019050919050565b5f6020820190508181035f83015261067b81610642565b9050919050565b7f4e487b71000000000000000000000000000000000000000000000000000000005f52603260045260245ffd5b7f496e766f69636552656769737472793a207a65726f20746f6b656e00000000005f82015250565b5f6106e3601b836105e4565b91506106ee826106af565b602082019050919050565b5f6020820190508181035f830152610710816106d7565b9050919050565b612e53806107245f395ff3fe608060405234801561000f575f5ffd5b5060043610610135575f3560e01c8063756742f8116100b6578063ac60a6cd1161007a578063ac60a6cd14610365578063b437321514610381578063d6b45038146103b1578063da9c273d146103cf578063e7331823146103eb578063f2fde38b1461040757610135565b8063756742f8146102865780637e197fbd146102b65780638da5cb5b146102e757806394a1c5df14610305578063a95081961461033557610135565b80633c0153a5116100fd5780633c0153a5146101e45780634178617f146102145780634946008d146102305780635da999ee14610260578063715018a61461027c57610135565b806306fd154a1461013957806323ce7c5914610157578063284fd8e514610173578063321988a11461018f5780633a23cc0a146101ad575b5f5ffd5b610141610423565b60405161014e9190611ccb565b60405180910390f35b610171600480360381019061016c9190611ddd565b610448565b005b61018d60048036038101906101889190611ead565b610b30565b005b610197610c2c565b6040516101a49190611ee7565b60405180910390f35b6101c760048036038101906101c29190611f00565b610c32565b6040516101db98979695949392919061201d565b60405180910390f35b6101fe60048036038101906101f99190611ead565b610d7c565b60405161020b9190611ee7565b60405180910390f35b61022e60048036038101906102299190611ead565b610dc2565b005b61024a60048036038101906102459190611ead565b610dd6565b6040516102579190611ee7565b60405180910390f35b61027a60048036038101906102759190611f00565b610e76565b005b610284610fc1565b005b6102a0600480360381019061029b9190611ead565b610fd4565b6040516102ad91906120ba565b60405180910390f35b6102d060048036038101906102cb9190611f00565b610ff1565b6040516102de9291906120d3565b60405180910390f35b6102ef611010565b6040516102fc9190611ccb565b60405180910390f35b61031f600480360381019061031a91906120fa565b611037565b60405161032c91906120ba565b60405180910390f35b61034f600480360381019061034a91906120fa565b6110a9565b60405161035c9190611ee7565b60405180910390f35b61037f600480360381019061037a9190611f00565b611197565b005b61039b60048036038101906103969190611ead565b61151a565b6040516103a89190611ee7565b60405180910390f35b6103b9611575565b6040516103c69190611ee7565b60405180910390f35b6103e960048036038101906103e49190611f00565b61157b565b005b61040560048036038101906104009190611f00565b611725565b005b610421600480360381019061041c9190611ead565b6117b3565b005b60075f9054906101000a900473ffffffffffffffffffffffffffffffffffffffff1681565b8673ffffffffffffffffffffffffffffffffffffffff163373ffffffffffffffffffffffffffffffffffffffff16146104b6576040517f08c379a00000000000000000000000000000000000000000000000000000000081526004016104ad90612182565b60405180910390fd5b5f73ffffffffffffffffffffffffffffffffffffffff168673ffffffffffffffffffffffffffffffffffffffff1603610524576040517f08c379a000000000000000000000000000000000000000000000000000000000815260040161051b906121ea565b60405180910390fd5b60035f8573ffffffffffffffffffffffffffffffffffffffff1673ffffffffffffffffffffffffffffffffffffffff1681526020019081526020015f205f9054906101000a900460ff166105ad576040517f08c379a00000000000000000000000000000000000000000000000000000000081526004016105a490612278565b60405180910390fd5b5f85116105ef576040517f08c379a00000000000000000000000000000000000000000000000000000000081526004016105e6906122e0565b60405180910390fd5b6040838390501115610636576040517f08c379a000000000000000000000000000000000000000000000000000000000815260040161062d9061236e565b60405180910390fd5b60025f8981526020019081526020015f205f9054906101000a900460ff1615610694576040517f08c379a000000000000000000000000000000000000000000000000000000000815260040161068b906123d6565b60405180910390fd5b5f5f61069f8b610ff1565b915091508873ffffffffffffffffffffffffffffffffffffffff168273ffffffffffffffffffffffffffffffffffffffff1614610711576040517f08c379a000000000000000000000000000000000000000000000000000000000815260040161070890612464565b60405180910390fd5b600160045f8b73ffffffffffffffffffffffffffffffffffffffff1673ffffffffffffffffffffffffffffffffffffffff1681526020019081526020015f205461075b91906124af565b811461079c576040517f08c379a000000000000000000000000000000000000000000000000000000000815260040161079390612552565b60405180910390fd5b5f73ffffffffffffffffffffffffffffffffffffffff1660015f8d81526020019081526020015f206001015f9054906101000a900473ffffffffffffffffffffffffffffffffffffffff1673ffffffffffffffffffffffffffffffffffffffff161461083d576040517f08c379a0000000000000000000000000000000000000000000000000000000008152600401610834906125ba565b60405180910390fd5b600160025f8c81526020019081526020015f205f6101000a81548160ff021916908315150217905550600160045f8b73ffffffffffffffffffffffffffffffffffffffff1673ffffffffffffffffffffffffffffffffffffffff1681526020019081526020015f205f82825401925050819055506040518061010001604052808b81526020018a73ffffffffffffffffffffffffffffffffffffffff1681526020018973ffffffffffffffffffffffffffffffffffffffff1681526020018881526020018773ffffffffffffffffffffffffffffffffffffffff16815260200186868080601f0160208091040260200160405190810160405280939291908181526020018383808284375f81840152601f19601f8201169050808301925050505050505081526020018481526020015f600281111561097f5761097e611faa565b5b81525060015f8d81526020019081526020015f205f820151815f01556020820151816001015f6101000a81548173ffffffffffffffffffffffffffffffffffffffff021916908373ffffffffffffffffffffffffffffffffffffffff1602179055506040820151816002015f6101000a81548173ffffffffffffffffffffffffffffffffffffffff021916908373ffffffffffffffffffffffffffffffffffffffff160217905550606082015181600301556080820151816004015f6101000a81548173ffffffffffffffffffffffffffffffffffffffff021916908373ffffffffffffffffffffffffffffffffffffffff16021790555060a0820151816005019081610a8c9190612802565b5060c0820151816006015560e0820151816007015f6101000a81548160ff02191690836002811115610ac157610ac0611faa565b5b02179055509050508873ffffffffffffffffffffffffffffffffffffffff168a8c7f502aaa82676262fc025d1eaa188ed92b7e00b71dc3f32a0356d4c70e5462d9be8b8b8b8b8b8b604051610b1b9695949392919061290b565b60405180910390a45050505050505050505050565b610b38611837565b5f73ffffffffffffffffffffffffffffffffffffffff168173ffffffffffffffffffffffffffffffffffffffff1603610ba6576040517f08c379a0000000000000000000000000000000000000000000000000000000008152600401610b9d906129d5565b60405180910390fd5b8060075f6101000a81548173ffffffffffffffffffffffffffffffffffffffff021916908373ffffffffffffffffffffffffffffffffffffffff1602179055508073ffffffffffffffffffffffffffffffffffffffff167ff433abf3170ac388734721d2bfc716ed3334144695be86f04faec6e558be6cca60405160405180910390a250565b61271081565b5f5f5f5f5f60605f5f5f610c458a6118be565b9050805f0154816001015f9054906101000a900473ffffffffffffffffffffffffffffffffffffffff16826002015f9054906101000a900473ffffffffffffffffffffffffffffffffffffffff168360030154846004015f9054906101000a900473ffffffffffffffffffffffffffffffffffffffff16856005018660060154876007015f9054906101000a900460ff16828054610ce290612632565b80601f0160208091040260200160405190810160405280929190818152602001828054610d0e90612632565b8015610d595780601f10610d3057610100808354040283529160200191610d59565b820191905f5260205f20905b815481529060010190602001808311610d3c57829003601f168201915b505050505092509850985098509850985098509850985050919395975091939597565b5f60045f8373ffffffffffffffffffffffffffffffffffffffff1673ffffffffffffffffffffffffffffffffffffffff1681526020019081526020015f20549050919050565b610dca611837565b610dd38161196d565b50565b5f5f73ffffffffffffffffffffffffffffffffffffffff168273ffffffffffffffffffffffffffffffffffffffff1603610e12575f9050610e71565b5f60045f8473ffffffffffffffffffffffffffffffffffffffff1673ffffffffffffffffffffffffffffffffffffffff1681526020019081526020015f205490505f8103610e63575f915050610e71565b610e6d83826110a9565b9150505b919050565b5f8103610eb8576040517f08c379a0000000000000000000000000000000000000000000000000000000008152600401610eaf90612a3d565b60405180910390fd5b60055f3373ffffffffffffffffffffffffffffffffffffffff1673ffffffffffffffffffffffffffffffffffffffff1681526020019081526020015f205f8281526020019081526020015f205f9054906101000a900460ff16610fbe57600160055f3373ffffffffffffffffffffffffffffffffffffffff1673ffffffffffffffffffffffffffffffffffffffff1681526020019081526020015f205f8381526020019081526020015f205f6101000a81548160ff021916908315150217905550803373ffffffffffffffffffffffffffffffffffffffff167f5f7e85db33b6a5b25b74bde89469de7552777b5bfb03c08a6be2cfdae91bd4c860405160405180910390a35b50565b610fc9611837565b610fd25f611a33565b565b6003602052805f5260405f205f915054906101000a900460ff1681565b5f5f606083901c91506bffffffffffffffffffffffff83169050915091565b5f5f5f9054906101000a900473ffffffffffffffffffffffffffffffffffffffff16905090565b5f5f8203611047575f90506110a3565b60055f8473ffffffffffffffffffffffffffffffffffffffff1673ffffffffffffffffffffffffffffffffffffffff1681526020019081526020015f205f8381526020019081526020015f205f9054906101000a900460ff1690505b92915050565b5f5f73ffffffffffffffffffffffffffffffffffffffff168373ffffffffffffffffffffffffffffffffffffffff1603611118576040517f08c379a000000000000000000000000000000000000000000000000000000000815260040161110f90612aa5565b60405180910390fd5b5f8211801561113357506bffffffffffffffffffffffff8211155b611172576040517f08c379a000000000000000000000000000000000000000000000000000000000815260040161116990612b33565b60405180910390fd5b8160608473ffffffffffffffffffffffffffffffffffffffff16901b17905092915050565b61119f611af4565b5f6111a9826118be565b90505f60028111156111be576111bd611faa565b5b816007015f9054906101000a900460ff1660028111156111e1576111e0611faa565b5b14611221576040517f08c379a000000000000000000000000000000000000000000000000000000000815260040161121890612b9b565b60405180910390fd5b60035f826004015f9054906101000a900473ffffffffffffffffffffffffffffffffffffffff1673ffffffffffffffffffffffffffffffffffffffff1673ffffffffffffffffffffffffffffffffffffffff1681526020019081526020015f205f9054906101000a900460ff166112cd576040517f08c379a00000000000000000000000000000000000000000000000000000000081526004016112c490612278565b60405180910390fd5b5f816003015490505f612710600654836112e79190612bb9565b6112f19190612c27565b90505f81111561138b575f73ffffffffffffffffffffffffffffffffffffffff1660075f9054906101000a900473ffffffffffffffffffffffffffffffffffffffff1673ffffffffffffffffffffffffffffffffffffffff160361138a576040517f08c379a0000000000000000000000000000000000000000000000000000000008152600401611381906129d5565b60405180910390fd5b5b5f81836113989190612c57565b90506001846007015f6101000a81548160ff021916908360028111156113c1576113c0611faa565b5b02179055503373ffffffffffffffffffffffffffffffffffffffff16857f1e9d5d6c031b4874171949ea430d3fb4672ea0580b179f82f6f1439e9b8be5c785876004015f9054906101000a900473ffffffffffffffffffffffffffffffffffffffff168660405161143493929190612c8a565b60405180910390a35f846004015f9054906101000a900473ffffffffffffffffffffffffffffffffffffffff1690505f8311156114ba576114b93360075f9054906101000a900473ffffffffffffffffffffffffffffffffffffffff16858473ffffffffffffffffffffffffffffffffffffffff16611b16909392919063ffffffff16565b5b61150a33866001015f9054906101000a900473ffffffffffffffffffffffffffffffffffffffff16848473ffffffffffffffffffffffffffffffffffffffff16611b16909392919063ffffffff16565b5050505050611517611b6b565b50565b5f61156e82600160045f8673ffffffffffffffffffffffffffffffffffffffff1673ffffffffffffffffffffffffffffffffffffffff1681526020019081526020015f205461156991906124af565b6110a9565b9050919050565b60065481565b5f611585826118be565b9050806001015f9054906101000a900473ffffffffffffffffffffffffffffffffffffffff1673ffffffffffffffffffffffffffffffffffffffff163373ffffffffffffffffffffffffffffffffffffffff1614611618576040517f08c379a000000000000000000000000000000000000000000000000000000000815260040161160f90612182565b60405180910390fd5b5f600281111561162b5761162a611faa565b5b816007015f9054906101000a900460ff16600281111561164e5761164d611faa565b5b1461168e576040517f08c379a000000000000000000000000000000000000000000000000000000000815260040161168590612b9b565b60405180910390fd5b6002816007015f6101000a81548160ff021916908360028111156116b5576116b4611faa565b5b0217905550806001015f9054906101000a900473ffffffffffffffffffffffffffffffffffffffff1673ffffffffffffffffffffffffffffffffffffffff16827f1893bd55c53ca5d28463267b3794ea27b1c3fc3b0cc5f86e0c5b613ad4156f0860405160405180910390a35050565b61172d611837565b612710811115611772576040517f08c379a000000000000000000000000000000000000000000000000000000000815260040161176990612d2f565b60405180910390fd5b806006819055507f8534a60516a09ee1a02182db474e9d339a059c7c662e8269d8dbffda6c75092b816040516117a89190611ee7565b60405180910390a150565b6117bb611837565b5f73ffffffffffffffffffffffffffffffffffffffff168173ffffffffffffffffffffffffffffffffffffffff160361182b575f6040517f1e4fbdf70000000000000000000000000000000000000000000000000000000081526004016118229190611ccb565b60405180910390fd5b61183481611a33565b50565b61183f611b85565b73ffffffffffffffffffffffffffffffffffffffff1661185d611010565b73ffffffffffffffffffffffffffffffffffffffff16146118bc57611880611b85565b6040517f118cdaa70000000000000000000000000000000000000000000000000000000081526004016118b39190611ccb565b60405180910390fd5b565b5f5f60015f8481526020019081526020015f2090505f73ffffffffffffffffffffffffffffffffffffffff16816001015f9054906101000a900473ffffffffffffffffffffffffffffffffffffffff1673ffffffffffffffffffffffffffffffffffffffff1603611964576040517f08c379a000000000000000000000000000000000000000000000000000000000815260040161195b90612d97565b60405180910390fd5b80915050919050565b5f73ffffffffffffffffffffffffffffffffffffffff168173ffffffffffffffffffffffffffffffffffffffff16036119db576040517f08c379a00000000000000000000000000000000000000000000000000000000081526004016119d290612dff565b60405180910390fd5b600160035f8373ffffffffffffffffffffffffffffffffffffffff1673ffffffffffffffffffffffffffffffffffffffff1681526020019081526020015f205f6101000a81548160ff02191690831515021790555050565b5f5f5f9054906101000a900473ffffffffffffffffffffffffffffffffffffffff169050815f5f6101000a81548173ffffffffffffffffffffffffffffffffffffffff021916908373ffffffffffffffffffffffffffffffffffffffff1602179055508173ffffffffffffffffffffffffffffffffffffffff168173ffffffffffffffffffffffffffffffffffffffff167f8be0079c531659141344cd1fd0a4f28419497f9722a3daafe3b4186f6b6457e060405160405180910390a35050565b611afc611b8c565b6002611b0e611b09611bcd565b611bf6565b5f0181905550565b611b24848484846001611bff565b611b6557836040517f5274afe7000000000000000000000000000000000000000000000000000000008152600401611b5c9190611ccb565b60405180910390fd5b50505050565b6001611b7d611b78611bcd565b611bf6565b5f0181905550565b5f33905090565b611b94611c70565b15611bcb576040517f3ee5aeb500000000000000000000000000000000000000000000000000000000815260040160405180910390fd5b565b5f7f9b779b17422d0df92223018b32b4d1fa46e071723d6817e2486d003becc55f005f1b905090565b5f819050919050565b5f5f6323b872dd60e01b9050604051815f525f1960601c87166004525f1960601c86166024528460445260205f60645f5f8c5af1925060015f51148316611c5d578383151615611c51573d5f823e3d81fd5b5f883b113d1516831692505b806040525f606052505095945050505050565b5f6002611c83611c7e611bcd565b611bf6565b5f015414905090565b5f73ffffffffffffffffffffffffffffffffffffffff82169050919050565b5f611cb582611c8c565b9050919050565b611cc581611cab565b82525050565b5f602082019050611cde5f830184611cbc565b92915050565b5f5ffd5b5f5ffd5b5f819050919050565b611cfe81611cec565b8114611d08575f5ffd5b50565b5f81359050611d1981611cf5565b92915050565b5f819050919050565b611d3181611d1f565b8114611d3b575f5ffd5b50565b5f81359050611d4c81611d28565b92915050565b611d5b81611cab565b8114611d65575f5ffd5b50565b5f81359050611d7681611d52565b92915050565b5f5ffd5b5f5ffd5b5f5ffd5b5f5f83601f840112611d9d57611d9c611d7c565b5b8235905067ffffffffffffffff811115611dba57611db9611d80565b5b602083019150836001820283011115611dd657611dd5611d84565b5b9250929050565b5f5f5f5f5f5f5f5f5f6101008a8c031215611dfb57611dfa611ce4565b5b5f611e088c828d01611d0b565b9950506020611e198c828d01611d3e565b9850506040611e2a8c828d01611d68565b9750506060611e3b8c828d01611d68565b9650506080611e4c8c828d01611d0b565b95505060a0611e5d8c828d01611d68565b94505060c08a013567ffffffffffffffff811115611e7e57611e7d611ce8565b5b611e8a8c828d01611d88565b935093505060e0611e9d8c828d01611d0b565b9150509295985092959850929598565b5f60208284031215611ec257611ec1611ce4565b5b5f611ecf84828501611d68565b91505092915050565b611ee181611cec565b82525050565b5f602082019050611efa5f830184611ed8565b92915050565b5f60208284031215611f1557611f14611ce4565b5b5f611f2284828501611d0b565b91505092915050565b611f3481611d1f565b82525050565b5f81519050919050565b5f82825260208201905092915050565b8281835e5f83830152505050565b5f601f19601f8301169050919050565b5f611f7c82611f3a565b611f868185611f44565b9350611f96818560208601611f54565b611f9f81611f62565b840191505092915050565b7f4e487b71000000000000000000000000000000000000000000000000000000005f52602160045260245ffd5b60038110611fe857611fe7611faa565b5b50565b5f819050611ff882611fd7565b919050565b5f61200782611feb565b9050919050565b61201781611ffd565b82525050565b5f610100820190506120315f83018b611f2b565b61203e602083018a611cbc565b61204b6040830189611cbc565b6120586060830188611ed8565b6120656080830187611cbc565b81810360a08301526120778186611f72565b905061208660c0830185611ed8565b61209360e083018461200e565b9998505050505050505050565b5f8115159050919050565b6120b4816120a0565b82525050565b5f6020820190506120cd5f8301846120ab565b92915050565b5f6040820190506120e65f830185611cbc565b6120f36020830184611ed8565b9392505050565b5f5f604083850312156121105761210f611ce4565b5b5f61211d85828601611d68565b925050602061212e85828601611d0b565b9150509250929050565b7f496e766f69636552656769737472793a206e6f7420656d6974746572000000005f82015250565b5f61216c601c83611f44565b915061217782612138565b602082019050919050565b5f6020820190508181035f83015261219981612160565b9050919050565b7f496e766f69636552656769737472793a207a65726f20726563697069656e74005f82015250565b5f6121d4601f83611f44565b91506121df826121a0565b602082019050919050565b5f6020820190508181035f830152612201816121c8565b9050919050565b7f496e766f69636552656769737472793a20746f6b656e206e6f7420616c6c6f775f8201527f6564000000000000000000000000000000000000000000000000000000000000602082015250565b5f612262602283611f44565b915061226d82612208565b604082019050919050565b5f6020820190508181035f83015261228f81612256565b9050919050565b7f496e766f69636552656769737472793a207a65726f20616d6f756e74000000005f82015250565b5f6122ca601c83611f44565b91506122d582612296565b602082019050919050565b5f6020820190508181035f8301526122f7816122be565b9050919050565b7f496e766f69636552656769737472793a20766174206e756d62657220746f6f205f8201527f6c6f6e6700000000000000000000000000000000000000000000000000000000602082015250565b5f612358602483611f44565b9150612363826122fe565b604082019050919050565b5f6020820190508181035f8301526123858161234c565b9050919050565b7f496e766f69636552656769737472793a206861736820757365640000000000005f82015250565b5f6123c0601a83611f44565b91506123cb8261238c565b602082019050919050565b5f6020820190508181035f8301526123ed816123b4565b9050919050565b7f496e766f69636552656769737472793a20696420656d6974746572206d69736d5f8201527f6174636800000000000000000000000000000000000000000000000000000000602082015250565b5f61244e602483611f44565b9150612459826123f4565b604082019050919050565b5f6020820190508181035f83015261247b81612442565b9050919050565b7f4e487b71000000000000000000000000000000000000000000000000000000005f52601160045260245ffd5b5f6124b982611cec565b91506124c483611cec565b92508282019050808211156124dc576124db612482565b5b92915050565b7f496e766f69636552656769737472793a2069642073657175656e6365206d69735f8201527f6d61746368000000000000000000000000000000000000000000000000000000602082015250565b5f61253c602583611f44565b9150612547826124e2565b604082019050919050565b5f6020820190508181035f83015261256981612530565b9050919050565b7f496e766f69636552656769737472793a20696420616c726561647920757365645f82015250565b5f6125a4602083611f44565b91506125af82612570565b602082019050919050565b5f6020820190508181035f8301526125d181612598565b9050919050565b7f4e487b71000000000000000000000000000000000000000000000000000000005f52604160045260245ffd5b7f4e487b71000000000000000000000000000000000000000000000000000000005f52602260045260245ffd5b5f600282049050600182168061264957607f821691505b60208210810361265c5761265b612605565b5b50919050565b5f819050815f5260205f209050919050565b5f6020601f8301049050919050565b5f82821b905092915050565b5f600883026126be7fffffffffffffffffffffffffffffffffffffffffffffffffffffffffffffffff82612683565b6126c88683612683565b95508019841693508086168417925050509392505050565b5f819050919050565b5f6127036126fe6126f984611cec565b6126e0565b611cec565b9050919050565b5f819050919050565b61271c836126e9565b6127306127288261270a565b84845461268f565b825550505050565b5f5f905090565b612747612738565b612752818484612713565b505050565b5b818110156127755761276a5f8261273f565b600181019050612758565b5050565b601f8211156127ba5761278b81612662565b61279484612674565b810160208510156127a3578190505b6127b76127af85612674565b830182612757565b50505b505050565b5f82821c905092915050565b5f6127da5f19846008026127bf565b1980831691505092915050565b5f6127f283836127cb565b9150826002028217905092915050565b61280b82611f3a565b67ffffffffffffffff811115612824576128236125d8565b5b61282e8254612632565b612839828285612779565b5f60209050601f83116001811461286a575f8415612858578287015190505b61286285826127e7565b8655506128c9565b601f19841661287886612662565b5f5b8281101561289f5784890151825560018201915060208501945060208101905061287a565b868310156128bc57848901516128b8601f8916826127cb565b8355505b6001600288020188555050505b505050505050565b828183375f83830152505050565b5f6128ea8385611f44565b93506128f78385846128d1565b61290083611f62565b840190509392505050565b5f60a08201905061291e5f830189611cbc565b61292b6020830188611ed8565b6129386040830187611cbc565b818103606083015261294b8185876128df565b905061295a6080830184611ed8565b979650505050505050565b7f496e766f69636552656769737472793a207a65726f20636f6d6d697373696f6e5f8201527f20726563697069656e7400000000000000000000000000000000000000000000602082015250565b5f6129bf602a83611f44565b91506129ca82612965565b604082019050919050565b5f6020820190508181035f8301526129ec816129b3565b9050919050565b7f496e766f69636552656769737472793a207a65726f206e756c6c6966696572005f82015250565b5f612a27601f83611f44565b9150612a32826129f3565b602082019050919050565b5f6020820190508181035f830152612a5481612a1b565b9050919050565b7f496e766f69636552656769737472793a207a65726f20656d69747465720000005f82015250565b5f612a8f601d83611f44565b9150612a9a82612a5b565b602082019050919050565b5f6020820190508181035f830152612abc81612a83565b9050919050565b7f496e766f69636552656769737472793a20696e76616c69642073657175656e635f8201527f6500000000000000000000000000000000000000000000000000000000000000602082015250565b5f612b1d602183611f44565b9150612b2882612ac3565b604082019050919050565b5f6020820190508181035f830152612b4a81612b11565b9050919050565b7f496e766f69636552656769737472793a206e6f742070656e64696e67000000005f82015250565b5f612b85601c83611f44565b9150612b9082612b51565b602082019050919050565b5f6020820190508181035f830152612bb281612b79565b9050919050565b5f612bc382611cec565b9150612bce83611cec565b9250828202612bdc81611cec565b91508282048414831517612bf357612bf2612482565b5b5092915050565b7f4e487b71000000000000000000000000000000000000000000000000000000005f52601260045260245ffd5b5f612c3182611cec565b9150612c3c83611cec565b925082612c4c57612c4b612bfa565b5b828204905092915050565b5f612c6182611cec565b9150612c6c83611cec565b9250828203905081811115612c8457612c83612482565b5b92915050565b5f606082019050612c9d5f830186611ed8565b612caa6020830185611cbc565b612cb76040830184611ed8565b949350505050565b7f496e766f69636552656769737472793a20636f6d6d697373696f6e20627073205f8201527f746f6f2068696768000000000000000000000000000000000000000000000000602082015250565b5f612d19602883611f44565b9150612d2482612cbf565b604082019050919050565b5f6020820190508181035f830152612d4681612d0d565b9050919050565b7f496e766f69636552656769737472793a20696e76616c696420696400000000005f82015250565b5f612d81601b83611f44565b9150612d8c82612d4d565b602082019050919050565b5f6020820190508181035f830152612dae81612d75565b9050919050565b7f496e766f69636552656769737472793a207a65726f20746f6b656e00000000005f82015250565b5f612de9601b83611f44565b9150612df482612db5565b602082019050919050565b5f6020820190508181035f830152612e1681612ddd565b905091905056fea264697066735822122013f8d3e2272f4ef9075cc397d662430919e9f285356fdb928d0ccb019b793b6264736f6c634300081c0033",
  "linkReferences": {},
  "deployedLinkReferences": {},
  "immutableReferences": {},
  "inputSourceName": "project/contracts/InvoiceRegistry.sol",
  "buildInfoId": "solc-0_8_28-7dbbb7cbb9634f622d16fbffaca91650319d067d"
}